{
  "_format": "hh-sol-artifact-1",
  "contractName": "SmartContract",
  "sourceName": "contracts/SmartContract.sol",
  "abi": [
    {
      "inputs": [],
      "payable": false,
      "stateMutability": "nonpayable",
      "type": "constructor"
    },
    {
      "constant": false,
      "inputs": [
        {
          "internalType": "address",
          "name": "verifier",
          "type": "address"
        },
        {
          "internalType": "bytes32",
          "name": "cid",
          "type": "bytes32"
        },
        {
          "internalType": "string",
          "name": "name",
          "type": "string"
        },
        {
          "internalType": "string",
          "name": "sex",
          "type": "string"
        },
        {
          "internalType": "string",
          "name": "dob",
          "type": "string"
        },
        {
          "internalType": "uint256",
          "name": "mobile",
          "type": "uint256"
        },
        {
          "internalType": "string",
          "name": "email",
          "type": "string"
        },
        {
          "internalType": "string",
          "name": "college",
          "type": "string"
        },
        {
          "internalType": "int256",
          "name": "isOver18",
          "type": "int256"
        },
        {
          "internalType": "int256",
          "name": "isCollegeStudent",
          "type": "int256"
        }
      ],
      "name": "addVReq",
      "outputs": [],
      "payable": false,
      "stateMutability": "nonpayable",
      "type": "function"
    },
    {
      "constant": false,
      "inputs": [
        {
          "internalType": "address",
          "name": "org",
          "type": "address"
        },
        {
          "internalType": "bool",
          "name": "name",
          "type": "bool"
        },
        {
          "internalType": "bool",
          "name": "sex",
          "type": "bool"
        },
        {
          "internalType": "bool",
          "name": "dob",
          "type": "bool"
        },
        {
          "internalType": "bool",
          "name": "mobile",
          "type": "bool"
        },
        {
          "internalType": "bool",
          "name": "email",
          "type": "bool"
        },
        {
          "internalType": "bool",
          "name": "college",
          "type": "bool"
        },
        {
          "internalType": "bool",
          "name": "isOver18",
          "type": "bool"
        },
        {
          "internalType": "bool",
          "name": "isCollegeStudent",
          "type": "bool"
        }
      ],
      "name": "giveAccess",
      "outputs": [],
      "payable": false,
      "stateMutability": "nonpayable",
      "type": "function"
    },
    {
      "constant": true,
      "inputs": [],
      "name": "showUserInfo",
      "outputs": [
        {
          "components": [
            {
              "internalType": "string",
              "name": "name",
              "type": "string"
            },
            {
              "internalType": "string",
              "name": "sex",
              "type": "string"
            },
            {
              "internalType": "string",
              "name": "dob",
              "type": "string"
            },
            {
              "internalType": "uint256",
              "name": "mobile",
              "type": "uint256"
            },
            {
              "internalType": "string",
              "name": "email",
              "type": "string"
            },
            {
              "internalType": "string",
              "name": "college",
              "type": "string"
            },
            {
              "internalType": "int256",
              "name": "isOver18",
              "type": "int256"
            },
            {
              "internalType": "int256",
              "name": "isCollegeStudent",
              "type": "int256"
            }
          ],
          "internalType": "struct SmartContract.Scopes",
          "name": "",
          "type": "tuple"
        }
      ],
      "payable": false,
      "stateMutability": "view",
      "type": "function"
    },
    {
      "constant": true,
      "inputs": [
        {
          "internalType": "address",
          "name": "user",
          "type": "address"
        }
      ],
      "name": "showUserInfoByOrg",
      "outputs": [
        {
          "components": [
            {
              "internalType": "string",
              "name": "name",
              "type": "string"
            },
            {
              "internalType": "string",
              "name": "sex",
              "type": "string"
            },
            {
              "internalType": "string",
              "name": "dob",
              "type": "string"
            },
            {
              "internalType": "uint256",
              "name": "mobile",
              "type": "uint256"
            },
            {
              "internalType": "string",
              "name": "email",
              "type": "string"
            },
            {
              "internalType": "string",
              "name": "college",
              "type": "string"
            },
            {
              "internalType": "int256",
              "name": "isOver18",
              "type": "int256"
            },
            {
              "internalType": "int256",
              "name": "isCollegeStudent",
              "type": "int256"
            }
          ],
          "internalType": "struct SmartContract.Scopes",
          "name": "",
          "type": "tuple"
        }
      ],
      "payable": false,
      "stateMutability": "view",
      "type": "function"
    },
    {
      "constant": true,
      "inputs": [],
      "name": "showUserVerificationReqList",
      "outputs": [
        {
          "components": [
            {
              "internalType": "address",
              "name": "verifier",
              "type": "address"
            },
            {
              "internalType": "int256",
              "name": "status",
              "type": "int256"
            }
          ],
          "internalType": "struct SmartContract.VReqMeta[]",
          "name": "",
          "type": "tuple[]"
        }
      ],
      "payable": false,
      "stateMutability": "view",
      "type": "function"
    },
    {
      "constant": true,
      "inputs": [],
      "name": "showVerifierVerificationReqList",
      "outputs": [
        {
          "components": [
            {
              "internalType": "bytes32",
              "name": "cid",
              "type": "bytes32"
            },
            {
              "internalType": "address",
              "name": "user",
              "type": "address"
            },
            {
              "components": [
                {
                  "internalType": "string",
                  "name": "name",
                  "type": "string"
                },
                {
                  "internalType": "string",
                  "name": "sex",
                  "type": "string"
                },
                {
                  "internalType": "string",
                  "name": "dob",
                  "type": "string"
                },
                {
                  "internalType": "uint256",
                  "name": "mobile",
                  "type": "uint256"
                },
                {
                  "internalType": "string",
                  "name": "email",
                  "type": "string"
                },
                {
                  "internalType": "string",
                  "name": "college",
                  "type": "string"
                },
                {
                  "internalType": "int256",
                  "name": "isOver18",
                  "type": "int256"
                },
                {
                  "internalType": "int256",
                  "name": "isCollegeStudent",
                  "type": "int256"
                }
              ],
              "internalType": "struct SmartContract.Scopes",
              "name": "scopes",
              "type": "tuple"
            },
            {
              "internalType": "int256",
              "name": "status",
              "type": "int256"
            },
            {
              "internalType": "uint256",
              "name": "metaIndex",
              "type": "uint256"
            }
          ],
          "internalType": "struct SmartContract.VReq[]",
          "name": "",
          "type": "tuple[]"
        }
      ],
      "payable": false,
      "stateMutability": "view",
      "type": "function"
    },
    {
      "constant": false,
      "inputs": [
        {
          "internalType": "address",
          "name": "user",
          "type": "address"
        },
        {
          "internalType": "uint256",
          "name": "index",
          "type": "uint256"
        },
        {
          "internalType": "bool",
          "name": "decision",
          "type": "bool"
        }
      ],
      "name": "verifyReq",
      "outputs": [],
      "payable": false,
      "stateMutability": "nonpayable",
      "type": "function"
    }
  ],
  "bytecode": "0x608060405234801561001057600080fd5b50336000806101000a81548173ffffffffffffffffffffffffffffffffffffffff021916908373ffffffffffffffffffffffffffffffffffffffff1602179055506138ac806100606000396000f3fe608060405234801561001057600080fd5b506004361061007d5760003560e01c8063547fa8691161005b578063547fa869146100da578063b6c34474146100f8578063e7ce19b514610114578063f12d8834146101445761007d565b806325d08e25146100825780632e1894d81461009e578063438486d4146100bc575b600080fd5b61009c60048036036100979190810190613178565b610160565b005b6100a6610ff2565b6040516100b39190613611565b60405180910390f35b6100c461145f565b6040516100d191906135ef565b60405180910390f35b6100e261155b565b6040516100ef9190613633565b60405180910390f35b610112600480360361010d9190810190612f5f565b6118fb565b005b61012e60048036036101299190810190612f36565b6124db565b60405161013b9190613633565b60405180910390f35b61015e60048036036101599190810190613025565b6128ba565b005b8015610afb5761016e612bf5565b600260008573ffffffffffffffffffffffffffffffffffffffff1673ffffffffffffffffffffffffffffffffffffffff16815260200190815260200160002083815481106101b857fe5b90600052602060002090600c02016040518060a0016040529081600082015481526020016001820160009054906101000a900473ffffffffffffffffffffffffffffffffffffffff1673ffffffffffffffffffffffffffffffffffffffff1673ffffffffffffffffffffffffffffffffffffffff1681526020016002820160405180610100016040529081600082018054600181600116156101000203166002900480601f0160208091040260200160405190810160405280929190818152602001828054600181600116156101000203166002900480156102db5780601f106102b0576101008083540402835291602001916102db565b820191906000526020600020905b8154815290600101906020018083116102be57829003601f168201915b50505050508152602001600182018054600181600116156101000203166002900480601f01602080910402602001604051908101604052809291908181526020018280546001816001161561010002031660029004801561037d5780601f106103525761010080835404028352916020019161037d565b820191906000526020600020905b81548152906001019060200180831161036057829003601f168201915b50505050508152602001600282018054600181600116156101000203166002900480601f01602080910402602001604051908101604052809291908181526020018280546001816001161561010002031660029004801561041f5780601f106103f45761010080835404028352916020019161041f565b820191906000526020600020905b81548152906001019060200180831161040257829003601f168201915b5050505050815260200160038201548152602001600482018054600181600116156101000203166002900480601f0160208091040260200160405190810160405280929190818152602001828054600181600116156101000203166002900480156104cb5780601f106104a0576101008083540402835291602001916104cb565b820191906000526020600020905b8154815290600101906020018083116104ae57829003601f168201915b50505050508152602001600582018054600181600116156101000203166002900480601f01602080910402602001604051908101604052809291908181526020018280546001816001161561010002031660029004801561056d5780601f106105425761010080835404028352916020019161056d565b820191906000526020600020905b81548152906001019060200180831161055057829003601f168201915b50505050508152602001600682015481526020016007820154815250508152602001600a8201548152602001600b8201548152505090506001816060018181525050600160036000836020015173ffffffffffffffffffffffffffffffffffffffff1673ffffffffffffffffffffffffffffffffffffffff16815260200190815260200160002082608001518154811061060357fe5b906000526020600020906002020160010181905550604051602001610627906135da565b6040516020818303038152906040528051906020012081604001516000015160405160200161065691906135c3565b60405160208183030381529060405280519060200120146106d55780604001516000015160016000836020015173ffffffffffffffffffffffffffffffffffffffff1673ffffffffffffffffffffffffffffffffffffffff16815260200190815260200160002060000190805190602001906106d3929190612c43565b505b6040516020016106e4906135da565b6040516020818303038152906040528051906020012081604001516020015160405160200161071391906135c3565b60405160208183030381529060405280519060200120146107925780604001516020015160016000836020015173ffffffffffffffffffffffffffffffffffffffff1673ffffffffffffffffffffffffffffffffffffffff1681526020019081526020016000206001019080519060200190610790929190612c43565b505b6040516020016107a1906135da565b604051602081830303815290604052805190602001208160400151604001516040516020016107d091906135c3565b604051602081830303815290604052805190602001201461084f5780604001516040015160016000836020015173ffffffffffffffffffffffffffffffffffffffff1673ffffffffffffffffffffffffffffffffffffffff168152602001908152602001600020600201908051906020019061084d929190612c43565b505b6000816040015160600151146108b35780604001516060015160016000836020015173ffffffffffffffffffffffffffffffffffffffff1673ffffffffffffffffffffffffffffffffffffffff168152602001908152602001600020600301819055505b6040516020016108c2906135da565b604051602081830303815290604052805190602001208160400151608001516040516020016108f191906135c3565b60405160208183030381529060405280519060200120146109705780604001516080015160016000836020015173ffffffffffffffffffffffffffffffffffffffff1673ffffffffffffffffffffffffffffffffffffffff168152602001908152602001600020600401908051906020019061096e929190612c43565b505b60405160200161097f906135da565b60405160208183030381529060405280519060200120816040015160a001516040516020016109ae91906135c3565b6040516020818303038152906040528051906020012014610a2d57806040015160a0015160016000836020015173ffffffffffffffffffffffffffffffffffffffff1673ffffffffffffffffffffffffffffffffffffffff1681526020019081526020016000206005019080519060200190610a2b929190612c43565b505b6000816040015160c0015114610a9157806040015160c0015160016000836020015173ffffffffffffffffffffffffffffffffffffffff1673ffffffffffffffffffffffffffffffffffffffff168152602001908152602001600020600601819055505b6000816040015160e0015114610af557806040015160e0015160016000836020015173ffffffffffffffffffffffffffffffffffffffff1673ffffffffffffffffffffffffffffffffffffffff168152602001908152602001600020600701819055505b50610fed565b610b03612bf5565b600260008573ffffffffffffffffffffffffffffffffffffffff1673ffffffffffffffffffffffffffffffffffffffff1681526020019081526020016000208381548110610b4d57fe5b90600052602060002090600c02016040518060a0016040529081600082015481526020016001820160009054906101000a900473ffffffffffffffffffffffffffffffffffffffff1673ffffffffffffffffffffffffffffffffffffffff1673ffffffffffffffffffffffffffffffffffffffff1681526020016002820160405180610100016040529081600082018054600181600116156101000203166002900480601f016020809104026020016040519081016040528092919081815260200182805460018160011615610100020316600290048015610c705780601f10610c4557610100808354040283529160200191610c70565b820191906000526020600020905b815481529060010190602001808311610c5357829003601f168201915b50505050508152602001600182018054600181600116156101000203166002900480601f016020809104026020016040519081016040528092919081815260200182805460018160011615610100020316600290048015610d125780601f10610ce757610100808354040283529160200191610d12565b820191906000526020600020905b815481529060010190602001808311610cf557829003601f168201915b50505050508152602001600282018054600181600116156101000203166002900480601f016020809104026020016040519081016040528092919081815260200182805460018160011615610100020316600290048015610db45780601f10610d8957610100808354040283529160200191610db4565b820191906000526020600020905b815481529060010190602001808311610d9757829003601f168201915b5050505050815260200160038201548152602001600482018054600181600116156101000203166002900480601f016020809104026020016040519081016040528092919081815260200182805460018160011615610100020316600290048015610e605780601f10610e3557610100808354040283529160200191610e60565b820191906000526020600020905b815481529060010190602001808311610e4357829003601f168201915b50505050508152602001600582018054600181600116156101000203166002900480601f016020809104026020016040519081016040528092919081815260200182805460018160011615610100020316600290048015610f025780601f10610ed757610100808354040283529160200191610f02565b820191906000526020600020905b815481529060010190602001808311610ee557829003601f168201915b50505050508152602001600682015481526020016007820154815250508152602001600a8201548152602001600b8201548152505090507fffffffffffffffffffffffffffffffffffffffffffffffffffffffffffffffff8160600181815250507fffffffffffffffffffffffffffffffffffffffffffffffffffffffffffffffff60036000836020015173ffffffffffffffffffffffffffffffffffffffff1673ffffffffffffffffffffffffffffffffffffffff168152602001908152602001600020826080015181548110610fd657fe5b906000526020600020906002020160010181905550505b505050565b6060600260003373ffffffffffffffffffffffffffffffffffffffff1673ffffffffffffffffffffffffffffffffffffffff168152602001908152602001600020805480602002602001604051908101604052809291908181526020016000905b8282101561145657838290600052602060002090600c02016040518060a0016040529081600082015481526020016001820160009054906101000a900473ffffffffffffffffffffffffffffffffffffffff1673ffffffffffffffffffffffffffffffffffffffff1673ffffffffffffffffffffffffffffffffffffffff1681526020016002820160405180610100016040529081600082018054600181600116156101000203166002900480601f0160208091040260200160405190810160405280929190818152602001828054600181600116156101000203166002900480156111805780601f1061115557610100808354040283529160200191611180565b820191906000526020600020905b81548152906001019060200180831161116357829003601f168201915b50505050508152602001600182018054600181600116156101000203166002900480601f0160208091040260200160405190810160405280929190818152602001828054600181600116156101000203166002900480156112225780601f106111f757610100808354040283529160200191611222565b820191906000526020600020905b81548152906001019060200180831161120557829003601f168201915b50505050508152602001600282018054600181600116156101000203166002900480601f0160208091040260200160405190810160405280929190818152602001828054600181600116156101000203166002900480156112c45780601f10611299576101008083540402835291602001916112c4565b820191906000526020600020905b8154815290600101906020018083116112a757829003601f168201915b5050505050815260200160038201548152602001600482018054600181600116156101000203166002900480601f0160208091040260200160405190810160405280929190818152602001828054600181600116156101000203166002900480156113705780601f1061134557610100808354040283529160200191611370565b820191906000526020600020905b81548152906001019060200180831161135357829003601f168201915b50505050508152602001600582018054600181600116156101000203166002900480601f0160208091040260200160405190810160405280929190818152602001828054600181600116156101000203166002900480156114125780601f106113e757610100808354040283529160200191611412565b820191906000526020600020905b8154815290600101906020018083116113f557829003601f168201915b50505050508152602001600682015481526020016007820154815250508152602001600a8201548152602001600b8201548152505081526020019060010190611053565b50505050905090565b6060600360003373ffffffffffffffffffffffffffffffffffffffff1673ffffffffffffffffffffffffffffffffffffffff168152602001908152602001600020805480602002602001604051908101604052809291908181526020016000905b8282101561155257838290600052602060002090600202016040518060400160405290816000820160009054906101000a900473ffffffffffffffffffffffffffffffffffffffff1673ffffffffffffffffffffffffffffffffffffffff1673ffffffffffffffffffffffffffffffffffffffff168152602001600182015481525050815260200190600101906114c0565b50505050905090565b611563612cc3565b600160003373ffffffffffffffffffffffffffffffffffffffff1673ffffffffffffffffffffffffffffffffffffffff16815260200190815260200160002060405180610100016040529081600082018054600181600116156101000203166002900480601f0160208091040260200160405190810160405280929190818152602001828054600181600116156101000203166002900480156116475780601f1061161c57610100808354040283529160200191611647565b820191906000526020600020905b81548152906001019060200180831161162a57829003601f168201915b50505050508152602001600182018054600181600116156101000203166002900480601f0160208091040260200160405190810160405280929190818152602001828054600181600116156101000203166002900480156116e95780601f106116be576101008083540402835291602001916116e9565b820191906000526020600020905b8154815290600101906020018083116116cc57829003601f168201915b50505050508152602001600282018054600181600116156101000203166002900480601f01602080910402602001604051908101604052809291908181526020018280546001816001161561010002031660029004801561178b5780601f106117605761010080835404028352916020019161178b565b820191906000526020600020905b81548152906001019060200180831161176e57829003601f168201915b5050505050815260200160038201548152602001600482018054600181600116156101000203166002900480601f0160208091040260200160405190810160405280929190818152602001828054600181600116156101000203166002900480156118375780601f1061180c57610100808354040283529160200191611837565b820191906000526020600020905b81548152906001019060200180831161181a57829003601f168201915b50505050508152602001600582018054600181600116156101000203166002900480601f0160208091040260200160405190810160405280929190818152602001828054600181600116156101000203166002900480156118d95780601f106118ae576101008083540402835291602001916118d9565b820191906000526020600020905b8154815290600101906020018083116118bc57829003601f168201915b5050505050815260200160068201548152602001600782015481525050905090565b87156119e757600160003373ffffffffffffffffffffffffffffffffffffffff1673ffffffffffffffffffffffffffffffffffffffff168152602001908152602001600020600001600460003373ffffffffffffffffffffffffffffffffffffffff1673ffffffffffffffffffffffffffffffffffffffff16815260200190815260200160002060008b73ffffffffffffffffffffffffffffffffffffffff1673ffffffffffffffffffffffffffffffffffffffff16815260200190815260200160002060000190805460018160011615610100020316600290046119e1929190612d08565b50611a8b565b60405180602001604052806000815250600460003373ffffffffffffffffffffffffffffffffffffffff1673ffffffffffffffffffffffffffffffffffffffff16815260200190815260200160002060008b73ffffffffffffffffffffffffffffffffffffffff1673ffffffffffffffffffffffffffffffffffffffff1681526020019081526020016000206000019080519060200190611a89929190612c43565b505b8615611b7757600160003373ffffffffffffffffffffffffffffffffffffffff1673ffffffffffffffffffffffffffffffffffffffff168152602001908152602001600020600101600460003373ffffffffffffffffffffffffffffffffffffffff1673ffffffffffffffffffffffffffffffffffffffff16815260200190815260200160002060008b73ffffffffffffffffffffffffffffffffffffffff1673ffffffffffffffffffffffffffffffffffffffff1681526020019081526020016000206001019080546001816001161561010002031660029004611b71929190612d08565b50611c1b565b60405180602001604052806000815250600460003373ffffffffffffffffffffffffffffffffffffffff1673ffffffffffffffffffffffffffffffffffffffff16815260200190815260200160002060008b73ffffffffffffffffffffffffffffffffffffffff1673ffffffffffffffffffffffffffffffffffffffff1681526020019081526020016000206001019080519060200190611c19929190612c43565b505b8515611d0757600160003373ffffffffffffffffffffffffffffffffffffffff1673ffffffffffffffffffffffffffffffffffffffff168152602001908152602001600020600201600460003373ffffffffffffffffffffffffffffffffffffffff1673ffffffffffffffffffffffffffffffffffffffff16815260200190815260200160002060008b73ffffffffffffffffffffffffffffffffffffffff1673ffffffffffffffffffffffffffffffffffffffff1681526020019081526020016000206002019080546001816001161561010002031660029004611d01929190612d08565b50611dab565b60405180602001604052806000815250600460003373ffffffffffffffffffffffffffffffffffffffff1673ffffffffffffffffffffffffffffffffffffffff16815260200190815260200160002060008b73ffffffffffffffffffffffffffffffffffffffff1673ffffffffffffffffffffffffffffffffffffffff1681526020019081526020016000206002019080519060200190611da9929190612c43565b505b8415611e7c57600160003373ffffffffffffffffffffffffffffffffffffffff1673ffffffffffffffffffffffffffffffffffffffff16815260200190815260200160002060030154600460003373ffffffffffffffffffffffffffffffffffffffff1673ffffffffffffffffffffffffffffffffffffffff16815260200190815260200160002060008b73ffffffffffffffffffffffffffffffffffffffff1673ffffffffffffffffffffffffffffffffffffffff16815260200190815260200160002060030181905550611f02565b6000600460003373ffffffffffffffffffffffffffffffffffffffff1673ffffffffffffffffffffffffffffffffffffffff16815260200190815260200160002060008b73ffffffffffffffffffffffffffffffffffffffff1673ffffffffffffffffffffffffffffffffffffffff168152602001908152602001600020600301819055505b8315611fee57600160003373ffffffffffffffffffffffffffffffffffffffff1673ffffffffffffffffffffffffffffffffffffffff168152602001908152602001600020600401600460003373ffffffffffffffffffffffffffffffffffffffff1673ffffffffffffffffffffffffffffffffffffffff16815260200190815260200160002060008b73ffffffffffffffffffffffffffffffffffffffff1673ffffffffffffffffffffffffffffffffffffffff1681526020019081526020016000206004019080546001816001161561010002031660029004611fe8929190612d08565b50612092565b60405180602001604052806000815250600460003373ffffffffffffffffffffffffffffffffffffffff1673ffffffffffffffffffffffffffffffffffffffff16815260200190815260200160002060008b73ffffffffffffffffffffffffffffffffffffffff1673ffffffffffffffffffffffffffffffffffffffff1681526020019081526020016000206004019080519060200190612090929190612c43565b505b821561217e57600160003373ffffffffffffffffffffffffffffffffffffffff1673ffffffffffffffffffffffffffffffffffffffff168152602001908152602001600020600501600460003373ffffffffffffffffffffffffffffffffffffffff1673ffffffffffffffffffffffffffffffffffffffff16815260200190815260200160002060008b73ffffffffffffffffffffffffffffffffffffffff1673ffffffffffffffffffffffffffffffffffffffff1681526020019081526020016000206005019080546001816001161561010002031660029004612178929190612d08565b50612222565b60405180602001604052806000815250600460003373ffffffffffffffffffffffffffffffffffffffff1673ffffffffffffffffffffffffffffffffffffffff16815260200190815260200160002060008b73ffffffffffffffffffffffffffffffffffffffff1673ffffffffffffffffffffffffffffffffffffffff1681526020019081526020016000206005019080519060200190612220929190612c43565b505b81156122f357600160003373ffffffffffffffffffffffffffffffffffffffff1673ffffffffffffffffffffffffffffffffffffffff16815260200190815260200160002060060154600460003373ffffffffffffffffffffffffffffffffffffffff1673ffffffffffffffffffffffffffffffffffffffff16815260200190815260200160002060008b73ffffffffffffffffffffffffffffffffffffffff1673ffffffffffffffffffffffffffffffffffffffff16815260200190815260200160002060060181905550612379565b6000600460003373ffffffffffffffffffffffffffffffffffffffff1673ffffffffffffffffffffffffffffffffffffffff16815260200190815260200160002060008b73ffffffffffffffffffffffffffffffffffffffff1673ffffffffffffffffffffffffffffffffffffffff168152602001908152602001600020600601819055505b801561244a57600160003373ffffffffffffffffffffffffffffffffffffffff1673ffffffffffffffffffffffffffffffffffffffff16815260200190815260200160002060070154600460003373ffffffffffffffffffffffffffffffffffffffff1673ffffffffffffffffffffffffffffffffffffffff16815260200190815260200160002060008b73ffffffffffffffffffffffffffffffffffffffff1673ffffffffffffffffffffffffffffffffffffffff168152602001908152602001600020600701819055506124d0565b6000600460003373ffffffffffffffffffffffffffffffffffffffff1673ffffffffffffffffffffffffffffffffffffffff16815260200190815260200160002060008b73ffffffffffffffffffffffffffffffffffffffff1673ffffffffffffffffffffffffffffffffffffffff168152602001908152602001600020600701819055505b505050505050505050565b6124e3612cc3565b600460008373ffffffffffffffffffffffffffffffffffffffff1673ffffffffffffffffffffffffffffffffffffffff16815260200190815260200160002060003373ffffffffffffffffffffffffffffffffffffffff1673ffffffffffffffffffffffffffffffffffffffff16815260200190815260200160002060405180610100016040529081600082018054600181600116156101000203166002900480601f0160208091040260200160405190810160405280929190818152602001828054600181600116156101000203166002900480156126045780601f106125d957610100808354040283529160200191612604565b820191906000526020600020905b8154815290600101906020018083116125e757829003601f168201915b50505050508152602001600182018054600181600116156101000203166002900480601f0160208091040260200160405190810160405280929190818152602001828054600181600116156101000203166002900480156126a65780601f1061267b576101008083540402835291602001916126a6565b820191906000526020600020905b81548152906001019060200180831161268957829003601f168201915b50505050508152602001600282018054600181600116156101000203166002900480601f0160208091040260200160405190810160405280929190818152602001828054600181600116156101000203166002900480156127485780601f1061271d57610100808354040283529160200191612748565b820191906000526020600020905b81548152906001019060200180831161272b57829003601f168201915b5050505050815260200160038201548152602001600482018054600181600116156101000203166002900480601f0160208091040260200160405190810160405280929190818152602001828054600181600116156101000203166002900480156127f45780601f106127c9576101008083540402835291602001916127f4565b820191906000526020600020905b8154815290600101906020018083116127d757829003601f168201915b50505050508152602001600582018054600181600116156101000203166002900480601f0160208091040260200160405190810160405280929190818152602001828054600181600116156101000203166002900480156128965780601f1061286b57610100808354040283529160200191612896565b820191906000526020600020905b81548152906001019060200180831161287957829003601f168201915b50505050508152602001600682015481526020016007820154815250509050919050565b600260008b73ffffffffffffffffffffffffffffffffffffffff1673ffffffffffffffffffffffffffffffffffffffff1681526020019081526020016000206040518060a001604052808b81526020013373ffffffffffffffffffffffffffffffffffffffff1681526020016040518061010001604052808c81526020018b81526020018a815260200189815260200188815260200187815260200186815260200185815250815260200160008152602001600360003373ffffffffffffffffffffffffffffffffffffffff1673ffffffffffffffffffffffffffffffffffffffff168152602001908152602001600020805490508152509080600181540180825580915050906001820390600052602060002090600c0201600090919290919091506000820151816000015560208201518160010160006101000a81548173ffffffffffffffffffffffffffffffffffffffff021916908373ffffffffffffffffffffffffffffffffffffffff1602179055506040820151816002016000820151816000019080519060200190612a53929190612d8f565b506020820151816001019080519060200190612a70929190612d8f565b506040820151816002019080519060200190612a8d929190612d8f565b50606082015181600301556080820151816004019080519060200190612ab4929190612d8f565b5060a0820151816005019080519060200190612ad1929190612d8f565b5060c0820151816006015560e082015181600701555050606082015181600a0155608082015181600b0155505050600360003373ffffffffffffffffffffffffffffffffffffffff1673ffffffffffffffffffffffffffffffffffffffff16815260200190815260200160002060405180604001604052808c73ffffffffffffffffffffffffffffffffffffffff16815260200160008152509080600181540180825580915050906001820390600052602060002090600202016000909192909190915060008201518160000160006101000a81548173ffffffffffffffffffffffffffffffffffffffff021916908373ffffffffffffffffffffffffffffffffffffffff1602179055506020820151816001015550505050505050505050505050565b6040518060a0016040528060008019168152602001600073ffffffffffffffffffffffffffffffffffffffff168152602001612c2f612e0f565b815260200160008152602001600081525090565b828054600181600116156101000203166002900490600052602060002090601f016020900481019282601f10612c8457805160ff1916838001178555612cb2565b82800160010185558215612cb2579182015b82811115612cb1578251825591602001919060010190612c96565b5b509050612cbf9190612e54565b5090565b60405180610100016040528060608152602001606081526020016060815260200160008152602001606081526020016060815260200160008152602001600081525090565b828054600181600116156101000203166002900490600052602060002090601f016020900481019282601f10612d415780548555612d7e565b82800160010185558215612d7e57600052602060002091601f016020900482015b82811115612d7d578254825591600101919060010190612d62565b5b509050612d8b9190612e54565b5090565b828054600181600116156101000203166002900490600052602060002090601f016020900481019282601f10612dd057805160ff1916838001178555612dfe565b82800160010185558215612dfe579182015b82811115612dfd578251825591602001919060010190612de2565b5b509050612e0b9190612e54565b5090565b60405180610100016040528060608152602001606081526020016060815260200160008152602001606081526020016060815260200160008152602001600081525090565b612e7691905b80821115612e72576000816000905550600101612e5a565b5090565b90565b600081359050612e88816137f6565b92915050565b600081359050612e9d8161380d565b92915050565b600081359050612eb281613824565b92915050565b600081359050612ec78161383b565b92915050565b600082601f830112612ede57600080fd5b8135612ef1612eec82613682565b613655565b91508082526020830160208301858383011115612f0d57600080fd5b612f188382846137a3565b50505092915050565b600081359050612f3081613852565b92915050565b600060208284031215612f4857600080fd5b6000612f5684828501612e79565b91505092915050565b60008060008060008060008060006101208a8c031215612f7e57600080fd5b6000612f8c8c828d01612e79565b9950506020612f9d8c828d01612e8e565b9850506040612fae8c828d01612e8e565b9750506060612fbf8c828d01612e8e565b9650506080612fd08c828d01612e8e565b95505060a0612fe18c828d01612e8e565b94505060c0612ff28c828d01612e8e565b93505060e06130038c828d01612e8e565b9250506101006130158c828d01612e8e565b9150509295985092959850929598565b6000806000806000806000806000806101408b8d03121561304557600080fd5b60006130538d828e01612e79565b9a505060206130648d828e01612ea3565b99505060408b013567ffffffffffffffff81111561308157600080fd5b61308d8d828e01612ecd565b98505060608b013567ffffffffffffffff8111156130aa57600080fd5b6130b68d828e01612ecd565b97505060808b013567ffffffffffffffff8111156130d357600080fd5b6130df8d828e01612ecd565b96505060a06130f08d828e01612f21565b95505060c08b013567ffffffffffffffff81111561310d57600080fd5b6131198d828e01612ecd565b94505060e08b013567ffffffffffffffff81111561313657600080fd5b6131428d828e01612ecd565b9350506101006131548d828e01612eb8565b9250506101206131668d828e01612eb8565b9150509295989b9194979a5092959850565b60008060006060848603121561318d57600080fd5b600061319b86828701612e79565b93505060206131ac86828701612f21565b92505060406131bd86828701612e8e565b9150509250925092565b60006131d3838361350f565b60408301905092915050565b60006131eb838361353e565b905092915050565b6131fc81613747565b82525050565b600061320d826136ce565b6132178185613709565b9350613222836136ae565b8060005b8381101561325357815161323a88826131c7565b9750613245836136ef565b925050600181019050613226565b5085935050505092915050565b600061326b826136d9565b613275818561371a565b935083602082028501613287856136be565b8060005b858110156132c357848403895281516132a485826131df565b94506132af836136fc565b925060208a0199505060018101905061328b565b50829750879550505050505092915050565b6132de81613765565b82525050565b6132ed8161376f565b82525050565b60006132fe826136e4565b613308818561372b565b93506133188185602086016137b2565b613321816137e5565b840191505092915050565b6000613337826136e4565b613341818561373c565b93506133518185602086016137b2565b80840191505092915050565b600061336a60008361373c565b9150600082019050919050565b600061010083016000830151848203600086015261339582826132f3565b915050602083015184820360208601526133af82826132f3565b915050604083015184820360408601526133c982826132f3565b91505060608301516133de60608601826135b4565b50608083015184820360808601526133f682826132f3565b91505060a083015184820360a086015261341082826132f3565b91505060c083015161342560c08601826132e4565b5060e083015161343860e08601826132e4565b508091505092915050565b600061010083016000830151848203600086015261346182826132f3565b9150506020830151848203602086015261347b82826132f3565b9150506040830151848203604086015261349582826132f3565b91505060608301516134aa60608601826135b4565b50608083015184820360808601526134c282826132f3565b91505060a083015184820360a08601526134dc82826132f3565b91505060c08301516134f160c08601826132e4565b5060e083015161350460e08601826132e4565b508091505092915050565b60408201600082015161352560008501826131f3565b50602082015161353860208501826132e4565b50505050565b600060a08301600083015161355660008601826132d5565b50602083015161356960208601826131f3565b50604083015184820360408601526135818282613443565b915050606083015161359660608601826132e4565b5060808301516135a960808601826135b4565b508091505092915050565b6135bd81613799565b82525050565b60006135cf828461332c565b915081905092915050565b60006135e58261335d565b9150819050919050565b600060208201905081810360008301526136098184613202565b905092915050565b6000602082019050818103600083015261362b8184613260565b905092915050565b6000602082019050818103600083015261364d8184613377565b905092915050565b6000604051905081810181811067ffffffffffffffff8211171561367857600080fd5b8060405250919050565b600067ffffffffffffffff82111561369957600080fd5b601f19601f8301169050602081019050919050565b6000819050602082019050919050565b6000819050602082019050919050565b600081519050919050565b600081519050919050565b600081519050919050565b6000602082019050919050565b6000602082019050919050565b600082825260208201905092915050565b600082825260208201905092915050565b600082825260208201905092915050565b600081905092915050565b600061375282613779565b9050919050565b60008115159050919050565b6000819050919050565b6000819050919050565b600073ffffffffffffffffffffffffffffffffffffffff82169050919050565b6000819050919050565b82818337600083830152505050565b60005b838110156137d05780820151818401526020810190506137b5565b838111156137df576000848401525b50505050565b6000601f19601f8301169050919050565b6137ff81613747565b811461380a57600080fd5b50565b61381681613759565b811461382157600080fd5b50565b61382d81613765565b811461383857600080fd5b50565b6138448161376f565b811461384f57600080fd5b50565b61385b81613799565b811461386657600080fd5b5056fea365627a7a72315820644d0af33cb212836b211e90c873d813ff4647942d07b772641a844e8b7639196c6578706572696d656e74616cf564736f6c63430005110040",
  "linkReferences": {},
  "deployedLinkReferences": {}
}