{
  "_format": "hh-sol-artifact-1",
  "contractName": "SmartContract",
  "sourceName": "contracts/SmartContract.sol",
  "abi": [
    {
      "inputs": [],
      "payable": false,
      "stateMutability": "nonpayable",
      "type": "constructor"
    },
    {
      "constant": false,
      "inputs": [
        {
          "internalType": "uint256",
          "name": "index",
          "type": "uint256"
        },
        {
          "internalType": "bool",
          "name": "decision",
          "type": "bool"
        }
      ],
      "name": "acceptReq",
      "outputs": [],
      "payable": false,
      "stateMutability": "nonpayable",
      "type": "function"
    },
    {
      "constant": false,
      "inputs": [
        {
          "internalType": "address",
          "name": "user",
          "type": "address"
        },
        {
          "internalType": "bool",
          "name": "name",
          "type": "bool"
        },
        {
          "internalType": "bool",
          "name": "sex",
          "type": "bool"
        },
        {
          "internalType": "bool",
          "name": "dob",
          "type": "bool"
        },
        {
          "internalType": "bool",
          "name": "mobile",
          "type": "bool"
        },
        {
          "internalType": "bool",
          "name": "email",
          "type": "bool"
        },
        {
          "internalType": "bool",
          "name": "college",
          "type": "bool"
        },
        {
          "internalType": "bool",
          "name": "isOver18",
          "type": "bool"
        },
        {
          "internalType": "bool",
          "name": "isCollegeStudent",
          "type": "bool"
        }
      ],
      "name": "addReq",
      "outputs": [],
      "payable": false,
      "stateMutability": "nonpayable",
      "type": "function"
    },
    {
      "constant": false,
      "inputs": [
        {
          "internalType": "address",
          "name": "verifier",
          "type": "address"
        },
        {
          "internalType": "uint256",
          "name": "cid",
          "type": "uint256"
        },
        {
          "internalType": "string",
          "name": "name",
          "type": "string"
        },
        {
          "internalType": "string",
          "name": "sex",
          "type": "string"
        },
        {
          "internalType": "string",
          "name": "dob",
          "type": "string"
        },
        {
          "internalType": "uint256",
          "name": "mobile",
          "type": "uint256"
        },
        {
          "internalType": "string",
          "name": "email",
          "type": "string"
        },
        {
          "internalType": "string",
          "name": "college",
          "type": "string"
        },
        {
          "internalType": "int256",
          "name": "isOver18",
          "type": "int256"
        },
        {
          "internalType": "int256",
          "name": "isCollegeStudent",
          "type": "int256"
        }
      ],
      "name": "addVReq",
      "outputs": [],
      "payable": false,
      "stateMutability": "nonpayable",
      "type": "function"
    },
    {
      "constant": true,
      "inputs": [],
      "name": "showUserInfo",
      "outputs": [
        {
          "components": [
            {
              "internalType": "string",
              "name": "name",
              "type": "string"
            },
            {
              "internalType": "string",
              "name": "sex",
              "type": "string"
            },
            {
              "internalType": "string",
              "name": "dob",
              "type": "string"
            },
            {
              "internalType": "uint256",
              "name": "mobile",
              "type": "uint256"
            },
            {
              "internalType": "string",
              "name": "email",
              "type": "string"
            },
            {
              "internalType": "string",
              "name": "college",
              "type": "string"
            },
            {
              "internalType": "int256",
              "name": "isOver18",
              "type": "int256"
            },
            {
              "internalType": "int256",
              "name": "isCollegeStudent",
              "type": "int256"
            }
          ],
          "internalType": "struct SmartContract.Scopes",
          "name": "",
          "type": "tuple"
        }
      ],
      "payable": false,
      "stateMutability": "view",
      "type": "function"
    },
    {
      "constant": true,
      "inputs": [],
      "name": "showUserVerificationReqList",
      "outputs": [
        {
          "components": [
            {
              "internalType": "address",
              "name": "verifier",
              "type": "address"
            },
            {
              "internalType": "int256",
              "name": "status",
              "type": "int256"
            }
          ],
          "internalType": "struct SmartContract.VReqMeta[]",
          "name": "",
          "type": "tuple[]"
        }
      ],
      "payable": false,
      "stateMutability": "view",
      "type": "function"
    },
    {
      "constant": true,
      "inputs": [],
      "name": "showVerifierVerificationReqList",
      "outputs": [
        {
          "components": [
            {
              "internalType": "uint256",
              "name": "cid",
              "type": "uint256"
            },
            {
              "internalType": "address",
              "name": "user",
              "type": "address"
            },
            {
              "components": [
                {
                  "internalType": "string",
                  "name": "name",
                  "type": "string"
                },
                {
                  "internalType": "string",
                  "name": "sex",
                  "type": "string"
                },
                {
                  "internalType": "string",
                  "name": "dob",
                  "type": "string"
                },
                {
                  "internalType": "uint256",
                  "name": "mobile",
                  "type": "uint256"
                },
                {
                  "internalType": "string",
                  "name": "email",
                  "type": "string"
                },
                {
                  "internalType": "string",
                  "name": "college",
                  "type": "string"
                },
                {
                  "internalType": "int256",
                  "name": "isOver18",
                  "type": "int256"
                },
                {
                  "internalType": "int256",
                  "name": "isCollegeStudent",
                  "type": "int256"
                }
              ],
              "internalType": "struct SmartContract.Scopes",
              "name": "scopes",
              "type": "tuple"
            },
            {
              "internalType": "int256",
              "name": "status",
              "type": "int256"
            },
            {
              "internalType": "uint256",
              "name": "metaIndex",
              "type": "uint256"
            }
          ],
          "internalType": "struct SmartContract.VReq[]",
          "name": "",
          "type": "tuple[]"
        }
      ],
      "payable": false,
      "stateMutability": "view",
      "type": "function"
    },
    {
      "constant": false,
      "inputs": [
        {
          "internalType": "uint256",
          "name": "index",
          "type": "uint256"
        },
        {
          "internalType": "bool",
          "name": "decision",
          "type": "bool"
        }
      ],
      "name": "verifyReq",
      "outputs": [],
      "payable": false,
      "stateMutability": "nonpayable",
      "type": "function"
    }
  ],
  "bytecode": "0x608060405234801561001057600080fd5b50336000806101000a81548173ffffffffffffffffffffffffffffffffffffffff021916908373ffffffffffffffffffffffffffffffffffffffff160217905550612a09806100606000396000f3fe608060405234801561001057600080fd5b506004361061007d5760003560e01c8063547fa8691161005b578063547fa869146100da5780638f7688ed146100f8578063a3b4e85814610114578063a48fe1dc146101305761007d565b80631468ddff146100825780632e1894d81461009e578063438486d4146100bc575b600080fd5b61009c600480360361009791908101906120ff565b61014c565b005b6100a6610384565b6040516100b3919061278f565b60405180910390f35b6100c46107f1565b6040516100d1919061276d565b60405180910390f35b6100e26108ed565b6040516100ef91906127b1565b60405180910390f35b610112600480360361010d9190810190612318565b610c8d565b005b61012e60048036036101299190810190612318565b610c91565b005b61014a600480360361014591908101906121c5565b611b22565b005b600460008a73ffffffffffffffffffffffffffffffffffffffff1673ffffffffffffffffffffffffffffffffffffffff1681526020019081526020016000206040518061014001604052803373ffffffffffffffffffffffffffffffffffffffff1681526020018a15158152602001891515815260200188151581526020018715158152602001861515815260200185151581526020018415158152602001831515815260200160008152509080600181540180825580915050906001820390600052602060002090600202016000909192909190915060008201518160000160006101000a81548173ffffffffffffffffffffffffffffffffffffffff021916908373ffffffffffffffffffffffffffffffffffffffff16021790555060208201518160000160146101000a81548160ff02191690831515021790555060408201518160000160156101000a81548160ff02191690831515021790555060608201518160000160166101000a81548160ff02191690831515021790555060808201518160000160176101000a81548160ff02191690831515021790555060a08201518160000160186101000a81548160ff02191690831515021790555060c08201518160000160196101000a81548160ff02191690831515021790555060e082015181600001601a6101000a81548160ff02191690831515021790555061010082015181600001601b6101000a81548160ff0219169083151502179055506101208201518160010155505050505050505050505050565b6060600260003373ffffffffffffffffffffffffffffffffffffffff1673ffffffffffffffffffffffffffffffffffffffff168152602001908152602001600020805480602002602001604051908101604052809291908181526020016000905b828210156107e857838290600052602060002090600c02016040518060a0016040529081600082015481526020016001820160009054906101000a900473ffffffffffffffffffffffffffffffffffffffff1673ffffffffffffffffffffffffffffffffffffffff1673ffffffffffffffffffffffffffffffffffffffff1681526020016002820160405180610100016040529081600082018054600181600116156101000203166002900480601f0160208091040260200160405190810160405280929190818152602001828054600181600116156101000203166002900480156105125780601f106104e757610100808354040283529160200191610512565b820191906000526020600020905b8154815290600101906020018083116104f557829003601f168201915b50505050508152602001600182018054600181600116156101000203166002900480601f0160208091040260200160405190810160405280929190818152602001828054600181600116156101000203166002900480156105b45780601f10610589576101008083540402835291602001916105b4565b820191906000526020600020905b81548152906001019060200180831161059757829003601f168201915b50505050508152602001600282018054600181600116156101000203166002900480601f0160208091040260200160405190810160405280929190818152602001828054600181600116156101000203166002900480156106565780601f1061062b57610100808354040283529160200191610656565b820191906000526020600020905b81548152906001019060200180831161063957829003601f168201915b5050505050815260200160038201548152602001600482018054600181600116156101000203166002900480601f0160208091040260200160405190810160405280929190818152602001828054600181600116156101000203166002900480156107025780601f106106d757610100808354040283529160200191610702565b820191906000526020600020905b8154815290600101906020018083116106e557829003601f168201915b50505050508152602001600582018054600181600116156101000203166002900480601f0160208091040260200160405190810160405280929190818152602001828054600181600116156101000203166002900480156107a45780601f10610779576101008083540402835291602001916107a4565b820191906000526020600020905b81548152906001019060200180831161078757829003601f168201915b50505050508152602001600682015481526020016007820154815250508152602001600a8201548152602001600b82015481525050815260200190600101906103e5565b50505050905090565b6060600360003373ffffffffffffffffffffffffffffffffffffffff1673ffffffffffffffffffffffffffffffffffffffff168152602001908152602001600020805480602002602001604051908101604052809291908181526020016000905b828210156108e457838290600052602060002090600202016040518060400160405290816000820160009054906101000a900473ffffffffffffffffffffffffffffffffffffffff1673ffffffffffffffffffffffffffffffffffffffff1673ffffffffffffffffffffffffffffffffffffffff16815260200160018201548152505081526020019060010190610852565b50505050905090565b6108f5611e5d565b600160003373ffffffffffffffffffffffffffffffffffffffff1673ffffffffffffffffffffffffffffffffffffffff16815260200190815260200160002060405180610100016040529081600082018054600181600116156101000203166002900480601f0160208091040260200160405190810160405280929190818152602001828054600181600116156101000203166002900480156109d95780601f106109ae576101008083540402835291602001916109d9565b820191906000526020600020905b8154815290600101906020018083116109bc57829003601f168201915b50505050508152602001600182018054600181600116156101000203166002900480601f016020809104026020016040519081016040528092919081815260200182805460018160011615610100020316600290048015610a7b5780601f10610a5057610100808354040283529160200191610a7b565b820191906000526020600020905b815481529060010190602001808311610a5e57829003601f168201915b50505050508152602001600282018054600181600116156101000203166002900480601f016020809104026020016040519081016040528092919081815260200182805460018160011615610100020316600290048015610b1d5780601f10610af257610100808354040283529160200191610b1d565b820191906000526020600020905b815481529060010190602001808311610b0057829003601f168201915b5050505050815260200160038201548152602001600482018054600181600116156101000203166002900480601f016020809104026020016040519081016040528092919081815260200182805460018160011615610100020316600290048015610bc95780601f10610b9e57610100808354040283529160200191610bc9565b820191906000526020600020905b815481529060010190602001808311610bac57829003601f168201915b50505050508152602001600582018054600181600116156101000203166002900480601f016020809104026020016040519081016040528092919081815260200182805460018160011615610100020316600290048015610c6b5780601f10610c4057610100808354040283529160200191610c6b565b820191906000526020600020905b815481529060010190602001808311610c4e57829003601f168201915b5050505050815260200160068201548152602001600782015481525050905090565b5050565b801561162c57610c9f611ea2565b600260003373ffffffffffffffffffffffffffffffffffffffff1673ffffffffffffffffffffffffffffffffffffffff1681526020019081526020016000208381548110610ce957fe5b90600052602060002090600c02016040518060a0016040529081600082015481526020016001820160009054906101000a900473ffffffffffffffffffffffffffffffffffffffff1673ffffffffffffffffffffffffffffffffffffffff1673ffffffffffffffffffffffffffffffffffffffff1681526020016002820160405180610100016040529081600082018054600181600116156101000203166002900480601f016020809104026020016040519081016040528092919081815260200182805460018160011615610100020316600290048015610e0c5780601f10610de157610100808354040283529160200191610e0c565b820191906000526020600020905b815481529060010190602001808311610def57829003601f168201915b50505050508152602001600182018054600181600116156101000203166002900480601f016020809104026020016040519081016040528092919081815260200182805460018160011615610100020316600290048015610eae5780601f10610e8357610100808354040283529160200191610eae565b820191906000526020600020905b815481529060010190602001808311610e9157829003601f168201915b50505050508152602001600282018054600181600116156101000203166002900480601f016020809104026020016040519081016040528092919081815260200182805460018160011615610100020316600290048015610f505780601f10610f2557610100808354040283529160200191610f50565b820191906000526020600020905b815481529060010190602001808311610f3357829003601f168201915b5050505050815260200160038201548152602001600482018054600181600116156101000203166002900480601f016020809104026020016040519081016040528092919081815260200182805460018160011615610100020316600290048015610ffc5780601f10610fd157610100808354040283529160200191610ffc565b820191906000526020600020905b815481529060010190602001808311610fdf57829003601f168201915b50505050508152602001600582018054600181600116156101000203166002900480601f01602080910402602001604051908101604052809291908181526020018280546001816001161561010002031660029004801561109e5780601f106110735761010080835404028352916020019161109e565b820191906000526020600020905b81548152906001019060200180831161108157829003601f168201915b50505050508152602001600682015481526020016007820154815250508152602001600a8201548152602001600b8201548152505090506001816060018181525050600160036000836020015173ffffffffffffffffffffffffffffffffffffffff1673ffffffffffffffffffffffffffffffffffffffff16815260200190815260200160002082608001518154811061113457fe5b90600052602060002090600202016001018190555060405160200161115890612758565b604051602081830303815290604052805190602001208160400151600001516040516020016111879190612741565b60405160208183030381529060405280519060200120146112065780604001516000015160016000836020015173ffffffffffffffffffffffffffffffffffffffff1673ffffffffffffffffffffffffffffffffffffffff1681526020019081526020016000206000019080519060200190611204929190611eed565b505b60405160200161121590612758565b604051602081830303815290604052805190602001208160400151602001516040516020016112449190612741565b60405160208183030381529060405280519060200120146112c35780604001516020015160016000836020015173ffffffffffffffffffffffffffffffffffffffff1673ffffffffffffffffffffffffffffffffffffffff16815260200190815260200160002060010190805190602001906112c1929190611eed565b505b6040516020016112d290612758565b604051602081830303815290604052805190602001208160400151604001516040516020016113019190612741565b60405160208183030381529060405280519060200120146113805780604001516040015160016000836020015173ffffffffffffffffffffffffffffffffffffffff1673ffffffffffffffffffffffffffffffffffffffff168152602001908152602001600020600201908051906020019061137e929190611eed565b505b6000816040015160600151146113e45780604001516060015160016000836020015173ffffffffffffffffffffffffffffffffffffffff1673ffffffffffffffffffffffffffffffffffffffff168152602001908152602001600020600301819055505b6040516020016113f390612758565b604051602081830303815290604052805190602001208160400151608001516040516020016114229190612741565b60405160208183030381529060405280519060200120146114a15780604001516080015160016000836020015173ffffffffffffffffffffffffffffffffffffffff1673ffffffffffffffffffffffffffffffffffffffff168152602001908152602001600020600401908051906020019061149f929190611eed565b505b6040516020016114b090612758565b60405160208183030381529060405280519060200120816040015160a001516040516020016114df9190612741565b604051602081830303815290604052805190602001201461155e57806040015160a0015160016000836020015173ffffffffffffffffffffffffffffffffffffffff1673ffffffffffffffffffffffffffffffffffffffff168152602001908152602001600020600501908051906020019061155c929190611eed565b505b6000816040015160c00151146115c257806040015160c0015160016000836020015173ffffffffffffffffffffffffffffffffffffffff1673ffffffffffffffffffffffffffffffffffffffff168152602001908152602001600020600601819055505b6000816040015160e001511461162657806040015160e0015160016000836020015173ffffffffffffffffffffffffffffffffffffffff1673ffffffffffffffffffffffffffffffffffffffff168152602001908152602001600020600701819055505b50611b1e565b611634611ea2565b600260003373ffffffffffffffffffffffffffffffffffffffff1673ffffffffffffffffffffffffffffffffffffffff168152602001908152602001600020838154811061167e57fe5b90600052602060002090600c02016040518060a0016040529081600082015481526020016001820160009054906101000a900473ffffffffffffffffffffffffffffffffffffffff1673ffffffffffffffffffffffffffffffffffffffff1673ffffffffffffffffffffffffffffffffffffffff1681526020016002820160405180610100016040529081600082018054600181600116156101000203166002900480601f0160208091040260200160405190810160405280929190818152602001828054600181600116156101000203166002900480156117a15780601f10611776576101008083540402835291602001916117a1565b820191906000526020600020905b81548152906001019060200180831161178457829003601f168201915b50505050508152602001600182018054600181600116156101000203166002900480601f0160208091040260200160405190810160405280929190818152602001828054600181600116156101000203166002900480156118435780601f1061181857610100808354040283529160200191611843565b820191906000526020600020905b81548152906001019060200180831161182657829003601f168201915b50505050508152602001600282018054600181600116156101000203166002900480601f0160208091040260200160405190810160405280929190818152602001828054600181600116156101000203166002900480156118e55780601f106118ba576101008083540402835291602001916118e5565b820191906000526020600020905b8154815290600101906020018083116118c857829003601f168201915b5050505050815260200160038201548152602001600482018054600181600116156101000203166002900480601f0160208091040260200160405190810160405280929190818152602001828054600181600116156101000203166002900480156119915780601f1061196657610100808354040283529160200191611991565b820191906000526020600020905b81548152906001019060200180831161197457829003601f168201915b50505050508152602001600582018054600181600116156101000203166002900480601f016020809104026020016040519081016040528092919081815260200182805460018160011615610100020316600290048015611a335780601f10611a0857610100808354040283529160200191611a33565b820191906000526020600020905b815481529060010190602001808311611a1657829003601f168201915b50505050508152602001600682015481526020016007820154815250508152602001600a8201548152602001600b8201548152505090507fffffffffffffffffffffffffffffffffffffffffffffffffffffffffffffffff8160600181815250507fffffffffffffffffffffffffffffffffffffffffffffffffffffffffffffffff60036000836020015173ffffffffffffffffffffffffffffffffffffffff1673ffffffffffffffffffffffffffffffffffffffff168152602001908152602001600020826080015181548110611b0757fe5b906000526020600020906002020160010181905550505b5050565b600260008b73ffffffffffffffffffffffffffffffffffffffff1673ffffffffffffffffffffffffffffffffffffffff1681526020019081526020016000206040518060a001604052808b81526020013373ffffffffffffffffffffffffffffffffffffffff1681526020016040518061010001604052808c81526020018b81526020018a815260200189815260200188815260200187815260200186815260200185815250815260200160008152602001600360003373ffffffffffffffffffffffffffffffffffffffff1673ffffffffffffffffffffffffffffffffffffffff168152602001908152602001600020805490508152509080600181540180825580915050906001820390600052602060002090600c0201600090919290919091506000820151816000015560208201518160010160006101000a81548173ffffffffffffffffffffffffffffffffffffffff021916908373ffffffffffffffffffffffffffffffffffffffff1602179055506040820151816002016000820151816000019080519060200190611cbb929190611f6d565b506020820151816001019080519060200190611cd8929190611f6d565b506040820151816002019080519060200190611cf5929190611f6d565b50606082015181600301556080820151816004019080519060200190611d1c929190611f6d565b5060a0820151816005019080519060200190611d39929190611f6d565b5060c0820151816006015560e082015181600701555050606082015181600a0155608082015181600b0155505050600360003373ffffffffffffffffffffffffffffffffffffffff1673ffffffffffffffffffffffffffffffffffffffff16815260200190815260200160002060405180604001604052808c73ffffffffffffffffffffffffffffffffffffffff16815260200160008152509080600181540180825580915050906001820390600052602060002090600202016000909192909190915060008201518160000160006101000a81548173ffffffffffffffffffffffffffffffffffffffff021916908373ffffffffffffffffffffffffffffffffffffffff1602179055506020820151816001015550505050505050505050505050565b60405180610100016040528060608152602001606081526020016060815260200160008152602001606081526020016060815260200160008152602001600081525090565b6040518060a0016040528060008152602001600073ffffffffffffffffffffffffffffffffffffffff168152602001611ed9611fed565b815260200160008152602001600081525090565b828054600181600116156101000203166002900490600052602060002090601f016020900481019282601f10611f2e57805160ff1916838001178555611f5c565b82800160010185558215611f5c579182015b82811115611f5b578251825591602001919060010190611f40565b5b509050611f699190612032565b5090565b828054600181600116156101000203166002900490600052602060002090601f016020900481019282601f10611fae57805160ff1916838001178555611fdc565b82800160010185558215611fdc579182015b82811115611fdb578251825591602001919060010190611fc0565b5b509050611fe99190612032565b5090565b60405180610100016040528060608152602001606081526020016060815260200160008152602001606081526020016060815260200160008152602001600081525090565b61205491905b80821115612050576000816000905550600101612038565b5090565b90565b6000813590506120668161296a565b92915050565b60008135905061207b81612981565b92915050565b60008135905061209081612998565b92915050565b600082601f8301126120a757600080fd5b81356120ba6120b582612800565b6127d3565b915080825260208301602083018583830111156120d657600080fd5b6120e1838284612917565b50505092915050565b6000813590506120f9816129af565b92915050565b60008060008060008060008060006101208a8c03121561211e57600080fd5b600061212c8c828d01612057565b995050602061213d8c828d0161206c565b985050604061214e8c828d0161206c565b975050606061215f8c828d0161206c565b96505060806121708c828d0161206c565b95505060a06121818c828d0161206c565b94505060c06121928c828d0161206c565b93505060e06121a38c828d0161206c565b9250506101006121b58c828d0161206c565b9150509295985092959850929598565b6000806000806000806000806000806101408b8d0312156121e557600080fd5b60006121f38d828e01612057565b9a505060206122048d828e016120ea565b99505060408b013567ffffffffffffffff81111561222157600080fd5b61222d8d828e01612096565b98505060608b013567ffffffffffffffff81111561224a57600080fd5b6122568d828e01612096565b97505060808b013567ffffffffffffffff81111561227357600080fd5b61227f8d828e01612096565b96505060a06122908d828e016120ea565b95505060c08b013567ffffffffffffffff8111156122ad57600080fd5b6122b98d828e01612096565b94505060e08b013567ffffffffffffffff8111156122d657600080fd5b6122e28d828e01612096565b9350506101006122f48d828e01612081565b9250506101206123068d828e01612081565b9150509295989b9194979a5092959850565b6000806040838503121561232b57600080fd5b6000612339858286016120ea565b925050602061234a8582860161206c565b9150509250929050565b6000612360838361268d565b60408301905092915050565b600061237883836126bc565b905092915050565b612389816128c5565b82525050565b600061239a8261284c565b6123a48185612887565b93506123af8361282c565b8060005b838110156123e05781516123c78882612354565b97506123d28361286d565b9250506001810190506123b3565b5085935050505092915050565b60006123f882612857565b6124028185612898565b9350836020820285016124148561283c565b8060005b858110156124505784840389528151612431858261236c565b945061243c8361287a565b925060208a01995050600181019050612418565b50829750879550505050505092915050565b61246b816128e3565b82525050565b600061247c82612862565b61248681856128a9565b9350612496818560208601612926565b61249f81612959565b840191505092915050565b60006124b582612862565b6124bf81856128ba565b93506124cf818560208601612926565b80840191505092915050565b60006124e86000836128ba565b9150600082019050919050565b60006101008301600083015184820360008601526125138282612471565b9150506020830151848203602086015261252d8282612471565b915050604083015184820360408601526125478282612471565b915050606083015161255c6060860182612732565b50608083015184820360808601526125748282612471565b91505060a083015184820360a086015261258e8282612471565b91505060c08301516125a360c0860182612462565b5060e08301516125b660e0860182612462565b508091505092915050565b60006101008301600083015184820360008601526125df8282612471565b915050602083015184820360208601526125f98282612471565b915050604083015184820360408601526126138282612471565b91505060608301516126286060860182612732565b50608083015184820360808601526126408282612471565b91505060a083015184820360a086015261265a8282612471565b91505060c083015161266f60c0860182612462565b5060e083015161268260e0860182612462565b508091505092915050565b6040820160008201516126a36000850182612380565b5060208201516126b66020850182612462565b50505050565b600060a0830160008301516126d46000860182612732565b5060208301516126e76020860182612380565b50604083015184820360408601526126ff82826125c1565b91505060608301516127146060860182612462565b5060808301516127276080860182612732565b508091505092915050565b61273b8161290d565b82525050565b600061274d82846124aa565b915081905092915050565b6000612763826124db565b9150819050919050565b60006020820190508181036000830152612787818461238f565b905092915050565b600060208201905081810360008301526127a981846123ed565b905092915050565b600060208201905081810360008301526127cb81846124f5565b905092915050565b6000604051905081810181811067ffffffffffffffff821117156127f657600080fd5b8060405250919050565b600067ffffffffffffffff82111561281757600080fd5b601f19601f8301169050602081019050919050565b6000819050602082019050919050565b6000819050602082019050919050565b600081519050919050565b600081519050919050565b600081519050919050565b6000602082019050919050565b6000602082019050919050565b600082825260208201905092915050565b600082825260208201905092915050565b600082825260208201905092915050565b600081905092915050565b60006128d0826128ed565b9050919050565b60008115159050919050565b6000819050919050565b600073ffffffffffffffffffffffffffffffffffffffff82169050919050565b6000819050919050565b82818337600083830152505050565b60005b83811015612944578082015181840152602081019050612929565b83811115612953576000848401525b50505050565b6000601f19601f8301169050919050565b612973816128c5565b811461297e57600080fd5b50565b61298a816128d7565b811461299557600080fd5b50565b6129a1816128e3565b81146129ac57600080fd5b50565b6129b88161290d565b81146129c357600080fd5b5056fea365627a7a72315820eec774f90aa5f71b3ff9f78b2bca6cb7e1fa65d55d2b68a21fdc85f93b3cb82b6c6578706572696d656e74616cf564736f6c63430005110040",
  "linkReferences": {},
  "deployedLinkReferences": {}
}