{
  "_format": "hh-sol-artifact-1",
  "contractName": "SmartContract",
  "sourceName": "contracts/SmartContract.sol",
  "abi": [
    {
      "inputs": [],
      "payable": false,
      "stateMutability": "nonpayable",
      "type": "constructor"
    },
    {
      "constant": false,
      "inputs": [
        {
          "internalType": "address",
          "name": "verifier",
          "type": "address"
        },
        {
          "internalType": "bytes32",
          "name": "cid",
          "type": "bytes32"
        },
        {
          "internalType": "string",
          "name": "name",
          "type": "string"
        },
        {
          "internalType": "string",
          "name": "sex",
          "type": "string"
        },
        {
          "internalType": "string",
          "name": "dob",
          "type": "string"
        },
        {
          "internalType": "uint256",
          "name": "mobile",
          "type": "uint256"
        },
        {
          "internalType": "string",
          "name": "email",
          "type": "string"
        },
        {
          "internalType": "string",
          "name": "college",
          "type": "string"
        },
        {
          "internalType": "int256",
          "name": "isOver18",
          "type": "int256"
        },
        {
          "internalType": "int256",
          "name": "isCollegeStudent",
          "type": "int256"
        }
      ],
      "name": "addVReq",
      "outputs": [],
      "payable": false,
      "stateMutability": "nonpayable",
      "type": "function"
    },
    {
      "constant": false,
      "inputs": [
        {
          "internalType": "address",
          "name": "org",
          "type": "address"
        },
        {
          "internalType": "bool",
          "name": "name",
          "type": "bool"
        },
        {
          "internalType": "bool",
          "name": "sex",
          "type": "bool"
        },
        {
          "internalType": "bool",
          "name": "dob",
          "type": "bool"
        },
        {
          "internalType": "bool",
          "name": "mobile",
          "type": "bool"
        },
        {
          "internalType": "bool",
          "name": "email",
          "type": "bool"
        },
        {
          "internalType": "bool",
          "name": "college",
          "type": "bool"
        },
        {
          "internalType": "bool",
          "name": "isOver18",
          "type": "bool"
        },
        {
          "internalType": "bool",
          "name": "isCollegeStudent",
          "type": "bool"
        }
      ],
      "name": "giveAccess",
      "outputs": [],
      "payable": false,
      "stateMutability": "nonpayable",
      "type": "function"
    },
    {
      "constant": true,
      "inputs": [],
      "name": "showUserInfo",
      "outputs": [
        {
          "internalType": "string",
          "name": "name",
          "type": "string"
        },
        {
          "internalType": "string",
          "name": "sex",
          "type": "string"
        },
        {
          "internalType": "string",
          "name": "dob",
          "type": "string"
        },
        {
          "internalType": "uint256",
          "name": "mobile",
          "type": "uint256"
        },
        {
          "internalType": "string",
          "name": "email",
          "type": "string"
        },
        {
          "internalType": "string",
          "name": "college",
          "type": "string"
        },
        {
          "internalType": "int256",
          "name": "isOver18",
          "type": "int256"
        },
        {
          "internalType": "int256",
          "name": "isCollegeStudent",
          "type": "int256"
        }
      ],
      "payable": false,
      "stateMutability": "view",
      "type": "function"
    },
    {
      "constant": true,
      "inputs": [
        {
          "internalType": "address",
          "name": "user",
          "type": "address"
        }
      ],
      "name": "showUserInfoBoolsByOrg",
      "outputs": [
        {
          "internalType": "int256",
          "name": "isOver18",
          "type": "int256"
        },
        {
          "internalType": "int256",
          "name": "isCollegeStudent",
          "type": "int256"
        }
      ],
      "payable": false,
      "stateMutability": "view",
      "type": "function"
    },
    {
      "constant": true,
      "inputs": [
        {
          "internalType": "address",
          "name": "user",
          "type": "address"
        }
      ],
      "name": "showUserInfoByOrg",
      "outputs": [
        {
          "internalType": "string",
          "name": "name",
          "type": "string"
        },
        {
          "internalType": "string",
          "name": "sex",
          "type": "string"
        },
        {
          "internalType": "string",
          "name": "dob",
          "type": "string"
        },
        {
          "internalType": "uint256",
          "name": "mobile",
          "type": "uint256"
        },
        {
          "internalType": "string",
          "name": "email",
          "type": "string"
        },
        {
          "internalType": "string",
          "name": "college",
          "type": "string"
        }
      ],
      "payable": false,
      "stateMutability": "view",
      "type": "function"
    },
    {
      "constant": true,
      "inputs": [
        {
          "internalType": "uint256",
          "name": "index",
          "type": "uint256"
        }
      ],
      "name": "showUserVerificationReqList",
      "outputs": [
        {
          "internalType": "address",
          "name": "verifier",
          "type": "address"
        },
        {
          "internalType": "int256",
          "name": "status",
          "type": "int256"
        }
      ],
      "payable": false,
      "stateMutability": "view",
      "type": "function"
    },
    {
      "constant": true,
      "inputs": [],
      "name": "showUserVerificationReqListLength",
      "outputs": [
        {
          "internalType": "uint256",
          "name": "",
          "type": "uint256"
        }
      ],
      "payable": false,
      "stateMutability": "view",
      "type": "function"
    },
    {
      "constant": true,
      "inputs": [
        {
          "internalType": "uint256",
          "name": "index",
          "type": "uint256"
        }
      ],
      "name": "showVerifierVerificationReqList",
      "outputs": [
        {
          "internalType": "bytes32",
          "name": "cid",
          "type": "bytes32"
        },
        {
          "internalType": "address",
          "name": "user",
          "type": "address"
        },
        {
          "internalType": "int256",
          "name": "status",
          "type": "int256"
        },
        {
          "internalType": "uint256",
          "name": "metaIndex",
          "type": "uint256"
        }
      ],
      "payable": false,
      "stateMutability": "view",
      "type": "function"
    },
    {
      "constant": true,
      "inputs": [],
      "name": "showVerifierVerificationReqListLength",
      "outputs": [
        {
          "internalType": "uint256",
          "name": "",
          "type": "uint256"
        }
      ],
      "payable": false,
      "stateMutability": "view",
      "type": "function"
    },
    {
      "constant": true,
      "inputs": [
        {
          "internalType": "uint256",
          "name": "index",
          "type": "uint256"
        }
      ],
      "name": "showVerifierVerificationReqScopeBoolsList",
      "outputs": [
        {
          "internalType": "int256",
          "name": "isOver18",
          "type": "int256"
        },
        {
          "internalType": "int256",
          "name": "isCollegeStudent",
          "type": "int256"
        }
      ],
      "payable": false,
      "stateMutability": "view",
      "type": "function"
    },
    {
      "constant": true,
      "inputs": [
        {
          "internalType": "uint256",
          "name": "index",
          "type": "uint256"
        }
      ],
      "name": "showVerifierVerificationReqScopeList",
      "outputs": [
        {
          "internalType": "string",
          "name": "name",
          "type": "string"
        },
        {
          "internalType": "string",
          "name": "sex",
          "type": "string"
        },
        {
          "internalType": "string",
          "name": "dob",
          "type": "string"
        },
        {
          "internalType": "uint256",
          "name": "mobile",
          "type": "uint256"
        },
        {
          "internalType": "string",
          "name": "email",
          "type": "string"
        },
        {
          "internalType": "string",
          "name": "college",
          "type": "string"
        }
      ],
      "payable": false,
      "stateMutability": "view",
      "type": "function"
    },
    {
      "constant": false,
      "inputs": [
        {
          "internalType": "address",
          "name": "user",
          "type": "address"
        },
        {
          "internalType": "uint256",
          "name": "index",
          "type": "uint256"
        },
        {
          "internalType": "bool",
          "name": "decision",
          "type": "bool"
        }
      ],
      "name": "verifyReq",
      "outputs": [],
      "payable": false,
      "stateMutability": "nonpayable",
      "type": "function"
    }
  ],
  "bytecode": "0x608060405234801561001057600080fd5b50336000806101000a81548173ffffffffffffffffffffffffffffffffffffffff021916908373ffffffffffffffffffffffffffffffffffffffff160217905550614555806100606000396000f3fe608060405234801561001057600080fd5b50600436106100b35760003560e01c806392c9cc391161007157806392c9cc3914610454578063b3c122bf146104d7578063b6c3447414610536578063e7ce19b5146105db578063f12d88341461084f578063f9817fc214610baf576100b3565b806297a913146100b8578063161a8a151461010157806325d08e2514610176578063547fa869146101d05780635e0243e614610418578063869a2d0014610436575b600080fd5b6100e4600480360360208110156100ce57600080fd5b8101908080359060200190929190505050610e0d565b604051808381526020018281526020019250505060405180910390f35b61012d6004803603602081101561011757600080fd5b8101908080359060200190929190505050610ed7565b604051808373ffffffffffffffffffffffffffffffffffffffff1673ffffffffffffffffffffffffffffffffffffffff1681526020018281526020019250505060405180910390f35b6101ce6004803603606081101561018c57600080fd5b81019080803573ffffffffffffffffffffffffffffffffffffffff16906020019092919080359060200190929190803515159060200190929190505050610fbb565b005b6101d8611fb5565b60405180806020018060200180602001898152602001806020018060200188815260200187815260200186810386528e818151815260200191508051906020019080838360005b8381101561023a57808201518184015260208101905061021f565b50505050905090810190601f1680156102675780820380516001836020036101000a031916815260200191505b5086810385528d818151815260200191508051906020019080838360005b838110156102a0578082015181840152602081019050610285565b50505050905090810190601f1680156102cd5780820380516001836020036101000a031916815260200191505b5086810384528c818151815260200191508051906020019080838360005b838110156103065780820151818401526020810190506102eb565b50505050905090810190601f1680156103335780820380516001836020036101000a031916815260200191505b5086810383528a818151815260200191508051906020019080838360005b8381101561036c578082015181840152602081019050610351565b50505050905090810190601f1680156103995780820380516001836020036101000a031916815260200191505b50868103825289818151815260200191508051906020019080838360005b838110156103d25780820151818401526020810190506103b7565b50505050905090810190601f1680156103ff5780820380516001836020036101000a031916815260200191505b509d505050505050505050505050505060405180910390f35b6104206124fb565b6040518082815260200191505060405180910390f35b61043e612545565b6040518082815260200191505060405180910390f35b6104806004803603602081101561046a57600080fd5b810190808035906020019092919050505061258f565b604051808581526020018473ffffffffffffffffffffffffffffffffffffffff1673ffffffffffffffffffffffffffffffffffffffff16815260200183815260200182815260200194505050505060405180910390f35b610519600480360360208110156104ed57600080fd5b81019080803573ffffffffffffffffffffffffffffffffffffffff169060200190929190505050612734565b604051808381526020018281526020019250505060405180910390f35b6105d9600480360361012081101561054d57600080fd5b81019080803573ffffffffffffffffffffffffffffffffffffffff169060200190929190803515159060200190929190803515159060200190929190803515159060200190929190803515159060200190929190803515159060200190929190803515159060200190929190803515159060200190929190803515159060200190929190505050612840565b005b61061d600480360360208110156105f157600080fd5b81019080803573ffffffffffffffffffffffffffffffffffffffff169060200190929190505050613420565b60405180806020018060200180602001878152602001806020018060200186810386528c818151815260200191508051906020019080838360005b83811015610673578082015181840152602081019050610658565b50505050905090810190601f1680156106a05780820380516001836020036101000a031916815260200191505b5086810385528b818151815260200191508051906020019080838360005b838110156106d95780820151818401526020810190506106be565b50505050905090810190601f1680156107065780820380516001836020036101000a031916815260200191505b5086810384528a818151815260200191508051906020019080838360005b8381101561073f578082015181840152602081019050610724565b50505050905090810190601f16801561076c5780820380516001836020036101000a031916815260200191505b50868103835288818151815260200191508051906020019080838360005b838110156107a557808201518184015260208101905061078a565b50505050905090810190601f1680156107d25780820380516001836020036101000a031916815260200191505b50868103825287818151815260200191508051906020019080838360005b8381101561080b5780820151818401526020810190506107f0565b50505050905090810190601f1680156108385780820380516001836020036101000a031916815260200191505b509b50505050505050505050505060405180910390f35b610bad600480360361014081101561086657600080fd5b81019080803573ffffffffffffffffffffffffffffffffffffffff16906020019092919080359060200190929190803590602001906401000000008111156108ad57600080fd5b8201836020820111156108bf57600080fd5b803590602001918460018302840111640100000000831117156108e157600080fd5b91908080601f016020809104026020016040519081016040528093929190818152602001838380828437600081840152601f19601f8201169050808301925050505050505091929192908035906020019064010000000081111561094457600080fd5b82018360208201111561095657600080fd5b8035906020019184600183028401116401000000008311171561097857600080fd5b91908080601f016020809104026020016040519081016040528093929190818152602001838380828437600081840152601f19601f820116905080830192505050505050509192919290803590602001906401000000008111156109db57600080fd5b8201836020820111156109ed57600080fd5b80359060200191846001830284011164010000000083111715610a0f57600080fd5b91908080601f016020809104026020016040519081016040528093929190818152602001838380828437600081840152601f19601f8201169050808301925050505050505091929192908035906020019092919080359060200190640100000000811115610a7c57600080fd5b820183602082011115610a8e57600080fd5b80359060200191846001830284011164010000000083111715610ab057600080fd5b91908080601f016020809104026020016040519081016040528093929190818152602001838380828437600081840152601f19601f82011690508083019250505050505050919291929080359060200190640100000000811115610b1357600080fd5b820183602082011115610b2557600080fd5b80359060200191846001830284011164010000000083111715610b4757600080fd5b91908080601f016020809104026020016040519081016040528093929190818152602001838380828437600081840152601f19601f8201169050808301925050505050505091929192908035906020019092919080359060200190929190505050613a46565b005b610bdb60048036036020811015610bc557600080fd5b8101908080359060200190929190505050613d81565b60405180806020018060200180602001878152602001806020018060200186810386528c818151815260200191508051906020019080838360005b83811015610c31578082015181840152602081019050610c16565b50505050905090810190601f168015610c5e5780820380516001836020036101000a031916815260200191505b5086810385528b818151815260200191508051906020019080838360005b83811015610c97578082015181840152602081019050610c7c565b50505050905090810190601f168015610cc45780820380516001836020036101000a031916815260200191505b5086810384528a818151815260200191508051906020019080838360005b83811015610cfd578082015181840152602081019050610ce2565b50505050905090810190601f168015610d2a5780820380516001836020036101000a031916815260200191505b50868103835288818151815260200191508051906020019080838360005b83811015610d63578082015181840152602081019050610d48565b50505050905090810190601f168015610d905780820380516001836020036101000a031916815260200191505b50868103825287818151815260200191508051906020019080838360005b83811015610dc9578082015181840152602081019050610dae565b50505050905090810190601f168015610df65780820380516001836020036101000a031916815260200191505b509b50505050505050505050505060405180910390f35b600080600260003373ffffffffffffffffffffffffffffffffffffffff1673ffffffffffffffffffffffffffffffffffffffff1681526020019081526020016000208381548110610e5a57fe5b90600052602060002090600c020160020160060154600260003373ffffffffffffffffffffffffffffffffffffffff1673ffffffffffffffffffffffffffffffffffffffff1681526020019081526020016000208481548110610eb957fe5b90600052602060002090600c02016002016007015491509150915091565b600080600360003373ffffffffffffffffffffffffffffffffffffffff1673ffffffffffffffffffffffffffffffffffffffff1681526020019081526020016000208381548110610f2457fe5b906000526020600020906002020160000160009054906101000a900473ffffffffffffffffffffffffffffffffffffffff16600360003373ffffffffffffffffffffffffffffffffffffffff1673ffffffffffffffffffffffffffffffffffffffff1681526020019081526020016000208481548110610fa057fe5b90600052602060002090600202016001015491509150915091565b8015611abe57610fc96142e1565b600260008573ffffffffffffffffffffffffffffffffffffffff1673ffffffffffffffffffffffffffffffffffffffff168152602001908152602001600020838154811061101357fe5b90600052602060002090600c02016040518060a0016040529081600082015481526020016001820160009054906101000a900473ffffffffffffffffffffffffffffffffffffffff1673ffffffffffffffffffffffffffffffffffffffff1673ffffffffffffffffffffffffffffffffffffffff1681526020016002820160405180610100016040529081600082018054600181600116156101000203166002900480601f0160208091040260200160405190810160405280929190818152602001828054600181600116156101000203166002900480156111365780601f1061110b57610100808354040283529160200191611136565b820191906000526020600020905b81548152906001019060200180831161111957829003601f168201915b50505050508152602001600182018054600181600116156101000203166002900480601f0160208091040260200160405190810160405280929190818152602001828054600181600116156101000203166002900480156111d85780601f106111ad576101008083540402835291602001916111d8565b820191906000526020600020905b8154815290600101906020018083116111bb57829003601f168201915b50505050508152602001600282018054600181600116156101000203166002900480601f01602080910402602001604051908101604052809291908181526020018280546001816001161561010002031660029004801561127a5780601f1061124f5761010080835404028352916020019161127a565b820191906000526020600020905b81548152906001019060200180831161125d57829003601f168201915b5050505050815260200160038201548152602001600482018054600181600116156101000203166002900480601f0160208091040260200160405190810160405280929190818152602001828054600181600116156101000203166002900480156113265780601f106112fb57610100808354040283529160200191611326565b820191906000526020600020905b81548152906001019060200180831161130957829003601f168201915b50505050508152602001600582018054600181600116156101000203166002900480601f0160208091040260200160405190810160405280929190818152602001828054600181600116156101000203166002900480156113c85780601f1061139d576101008083540402835291602001916113c8565b820191906000526020600020905b8154815290600101906020018083116113ab57829003601f168201915b50505050508152602001600682015481526020016007820154815250508152602001600a8201548152602001600b8201548152505090506001816060018181525050600160036000836020015173ffffffffffffffffffffffffffffffffffffffff1673ffffffffffffffffffffffffffffffffffffffff16815260200190815260200160002082608001518154811061145e57fe5b906000526020600020906002020160010181905550604051602001806000019050604051602081830303815290604052805190602001208160400151600001516040516020018082805190602001908083835b602083106114d457805182526020820191506020810190506020830392506114b1565b6001836020036101000a03801982511681845116808217855250505050505090500191505060405160208183030381529060405280519060200120146115785780604001516000015160016000836020015173ffffffffffffffffffffffffffffffffffffffff1673ffffffffffffffffffffffffffffffffffffffff168152602001908152602001600020600001908051906020019061157692919061432f565b505b604051602001806000019050604051602081830303815290604052805190602001208160400151602001516040516020018082805190602001908083835b602083106115d957805182526020820191506020810190506020830392506115b6565b6001836020036101000a038019825116818451168082178552505050505050905001915050604051602081830303815290604052805190602001201461167d5780604001516020015160016000836020015173ffffffffffffffffffffffffffffffffffffffff1673ffffffffffffffffffffffffffffffffffffffff168152602001908152602001600020600101908051906020019061167b92919061432f565b505b604051602001806000019050604051602081830303815290604052805190602001208160400151604001516040516020018082805190602001908083835b602083106116de57805182526020820191506020810190506020830392506116bb565b6001836020036101000a03801982511681845116808217855250505050505090500191505060405160208183030381529060405280519060200120146117825780604001516040015160016000836020015173ffffffffffffffffffffffffffffffffffffffff1673ffffffffffffffffffffffffffffffffffffffff168152602001908152602001600020600201908051906020019061178092919061432f565b505b6000816040015160600151146117e65780604001516060015160016000836020015173ffffffffffffffffffffffffffffffffffffffff1673ffffffffffffffffffffffffffffffffffffffff168152602001908152602001600020600301819055505b604051602001806000019050604051602081830303815290604052805190602001208160400151608001516040516020018082805190602001908083835b602083106118475780518252602082019150602081019050602083039250611824565b6001836020036101000a03801982511681845116808217855250505050505090500191505060405160208183030381529060405280519060200120146118eb5780604001516080015160016000836020015173ffffffffffffffffffffffffffffffffffffffff1673ffffffffffffffffffffffffffffffffffffffff16815260200190815260200160002060040190805190602001906118e992919061432f565b505b60405160200180600001905060405160208183030381529060405280519060200120816040015160a001516040516020018082805190602001908083835b6020831061194c5780518252602082019150602081019050602083039250611929565b6001836020036101000a03801982511681845116808217855250505050505090500191505060405160208183030381529060405280519060200120146119f057806040015160a0015160016000836020015173ffffffffffffffffffffffffffffffffffffffff1673ffffffffffffffffffffffffffffffffffffffff16815260200190815260200160002060050190805190602001906119ee92919061432f565b505b6000816040015160c0015114611a5457806040015160c0015160016000836020015173ffffffffffffffffffffffffffffffffffffffff1673ffffffffffffffffffffffffffffffffffffffff168152602001908152602001600020600601819055505b6000816040015160e0015114611ab857806040015160e0015160016000836020015173ffffffffffffffffffffffffffffffffffffffff1673ffffffffffffffffffffffffffffffffffffffff168152602001908152602001600020600701819055505b50611fb0565b611ac66142e1565b600260008573ffffffffffffffffffffffffffffffffffffffff1673ffffffffffffffffffffffffffffffffffffffff1681526020019081526020016000208381548110611b1057fe5b90600052602060002090600c02016040518060a0016040529081600082015481526020016001820160009054906101000a900473ffffffffffffffffffffffffffffffffffffffff1673ffffffffffffffffffffffffffffffffffffffff1673ffffffffffffffffffffffffffffffffffffffff1681526020016002820160405180610100016040529081600082018054600181600116156101000203166002900480601f016020809104026020016040519081016040528092919081815260200182805460018160011615610100020316600290048015611c335780601f10611c0857610100808354040283529160200191611c33565b820191906000526020600020905b815481529060010190602001808311611c1657829003601f168201915b50505050508152602001600182018054600181600116156101000203166002900480601f016020809104026020016040519081016040528092919081815260200182805460018160011615610100020316600290048015611cd55780601f10611caa57610100808354040283529160200191611cd5565b820191906000526020600020905b815481529060010190602001808311611cb857829003601f168201915b50505050508152602001600282018054600181600116156101000203166002900480601f016020809104026020016040519081016040528092919081815260200182805460018160011615610100020316600290048015611d775780601f10611d4c57610100808354040283529160200191611d77565b820191906000526020600020905b815481529060010190602001808311611d5a57829003601f168201915b5050505050815260200160038201548152602001600482018054600181600116156101000203166002900480601f016020809104026020016040519081016040528092919081815260200182805460018160011615610100020316600290048015611e235780601f10611df857610100808354040283529160200191611e23565b820191906000526020600020905b815481529060010190602001808311611e0657829003601f168201915b50505050508152602001600582018054600181600116156101000203166002900480601f016020809104026020016040519081016040528092919081815260200182805460018160011615610100020316600290048015611ec55780601f10611e9a57610100808354040283529160200191611ec5565b820191906000526020600020905b815481529060010190602001808311611ea857829003601f168201915b50505050508152602001600682015481526020016007820154815250508152602001600a8201548152602001600b8201548152505090507fffffffffffffffffffffffffffffffffffffffffffffffffffffffffffffffff8160600181815250507fffffffffffffffffffffffffffffffffffffffffffffffffffffffffffffffff60036000836020015173ffffffffffffffffffffffffffffffffffffffff1673ffffffffffffffffffffffffffffffffffffffff168152602001908152602001600020826080015181548110611f9957fe5b906000526020600020906002020160010181905550505b505050565b60608060606000606080600080600160003373ffffffffffffffffffffffffffffffffffffffff1673ffffffffffffffffffffffffffffffffffffffff168152602001908152602001600020600001600160003373ffffffffffffffffffffffffffffffffffffffff1673ffffffffffffffffffffffffffffffffffffffff168152602001908152602001600020600101600160003373ffffffffffffffffffffffffffffffffffffffff1673ffffffffffffffffffffffffffffffffffffffff168152602001908152602001600020600201600160003373ffffffffffffffffffffffffffffffffffffffff1673ffffffffffffffffffffffffffffffffffffffff16815260200190815260200160002060030154600160003373ffffffffffffffffffffffffffffffffffffffff1673ffffffffffffffffffffffffffffffffffffffff168152602001908152602001600020600401600160003373ffffffffffffffffffffffffffffffffffffffff1673ffffffffffffffffffffffffffffffffffffffff168152602001908152602001600020600501600160003373ffffffffffffffffffffffffffffffffffffffff1673ffffffffffffffffffffffffffffffffffffffff16815260200190815260200160002060060154600160003373ffffffffffffffffffffffffffffffffffffffff1673ffffffffffffffffffffffffffffffffffffffff16815260200190815260200160002060070154878054600181600116156101000203166002900480601f01602080910402602001604051908101604052809291908181526020018280546001816001161561010002031660029004801561226a5780601f1061223f5761010080835404028352916020019161226a565b820191906000526020600020905b81548152906001019060200180831161224d57829003601f168201915b50505050509750868054600181600116156101000203166002900480601f0160208091040260200160405190810160405280929190818152602001828054600181600116156101000203166002900480156123065780601f106122db57610100808354040283529160200191612306565b820191906000526020600020905b8154815290600101906020018083116122e957829003601f168201915b50505050509650858054600181600116156101000203166002900480601f0160208091040260200160405190810160405280929190818152602001828054600181600116156101000203166002900480156123a25780601f10612377576101008083540402835291602001916123a2565b820191906000526020600020905b81548152906001019060200180831161238557829003601f168201915b50505050509550838054600181600116156101000203166002900480601f01602080910402602001604051908101604052809291908181526020018280546001816001161561010002031660029004801561243e5780601f106124135761010080835404028352916020019161243e565b820191906000526020600020905b81548152906001019060200180831161242157829003601f168201915b50505050509350828054600181600116156101000203166002900480601f0160208091040260200160405190810160405280929190818152602001828054600181600116156101000203166002900480156124da5780601f106124af576101008083540402835291602001916124da565b820191906000526020600020905b8154815290600101906020018083116124bd57829003601f168201915b50505050509250975097509750975097509750975097509091929394959697565b6000600260003373ffffffffffffffffffffffffffffffffffffffff1673ffffffffffffffffffffffffffffffffffffffff16815260200190815260200160002080549050905090565b6000600360003373ffffffffffffffffffffffffffffffffffffffff1673ffffffffffffffffffffffffffffffffffffffff16815260200190815260200160002080549050905090565b600080600080600260003373ffffffffffffffffffffffffffffffffffffffff1673ffffffffffffffffffffffffffffffffffffffff16815260200190815260200160002085815481106125df57fe5b90600052602060002090600c020160000154600260003373ffffffffffffffffffffffffffffffffffffffff1673ffffffffffffffffffffffffffffffffffffffff168152602001908152602001600020868154811061263b57fe5b90600052602060002090600c020160010160009054906101000a900473ffffffffffffffffffffffffffffffffffffffff16600260003373ffffffffffffffffffffffffffffffffffffffff1673ffffffffffffffffffffffffffffffffffffffff16815260200190815260200160002087815481106126b757fe5b90600052602060002090600c0201600a0154600260003373ffffffffffffffffffffffffffffffffffffffff1673ffffffffffffffffffffffffffffffffffffffff168152602001908152602001600020888154811061271357fe5b90600052602060002090600c0201600b015493509350935093509193509193565b600080600460008473ffffffffffffffffffffffffffffffffffffffff1673ffffffffffffffffffffffffffffffffffffffff16815260200190815260200160002060003373ffffffffffffffffffffffffffffffffffffffff1673ffffffffffffffffffffffffffffffffffffffff16815260200190815260200160002060060154600460008573ffffffffffffffffffffffffffffffffffffffff1673ffffffffffffffffffffffffffffffffffffffff16815260200190815260200160002060003373ffffffffffffffffffffffffffffffffffffffff1673ffffffffffffffffffffffffffffffffffffffff1681526020019081526020016000206007015491509150915091565b871561292c57600160003373ffffffffffffffffffffffffffffffffffffffff1673ffffffffffffffffffffffffffffffffffffffff168152602001908152602001600020600001600460003373ffffffffffffffffffffffffffffffffffffffff1673ffffffffffffffffffffffffffffffffffffffff16815260200190815260200160002060008b73ffffffffffffffffffffffffffffffffffffffff1673ffffffffffffffffffffffffffffffffffffffff16815260200190815260200160002060000190805460018160011615610100020316600290046129269291906143af565b506129d0565b60405180602001604052806000815250600460003373ffffffffffffffffffffffffffffffffffffffff1673ffffffffffffffffffffffffffffffffffffffff16815260200190815260200160002060008b73ffffffffffffffffffffffffffffffffffffffff1673ffffffffffffffffffffffffffffffffffffffff16815260200190815260200160002060000190805190602001906129ce92919061432f565b505b8615612abc57600160003373ffffffffffffffffffffffffffffffffffffffff1673ffffffffffffffffffffffffffffffffffffffff168152602001908152602001600020600101600460003373ffffffffffffffffffffffffffffffffffffffff1673ffffffffffffffffffffffffffffffffffffffff16815260200190815260200160002060008b73ffffffffffffffffffffffffffffffffffffffff1673ffffffffffffffffffffffffffffffffffffffff1681526020019081526020016000206001019080546001816001161561010002031660029004612ab69291906143af565b50612b60565b60405180602001604052806000815250600460003373ffffffffffffffffffffffffffffffffffffffff1673ffffffffffffffffffffffffffffffffffffffff16815260200190815260200160002060008b73ffffffffffffffffffffffffffffffffffffffff1673ffffffffffffffffffffffffffffffffffffffff1681526020019081526020016000206001019080519060200190612b5e92919061432f565b505b8515612c4c57600160003373ffffffffffffffffffffffffffffffffffffffff1673ffffffffffffffffffffffffffffffffffffffff168152602001908152602001600020600201600460003373ffffffffffffffffffffffffffffffffffffffff1673ffffffffffffffffffffffffffffffffffffffff16815260200190815260200160002060008b73ffffffffffffffffffffffffffffffffffffffff1673ffffffffffffffffffffffffffffffffffffffff1681526020019081526020016000206002019080546001816001161561010002031660029004612c469291906143af565b50612cf0565b60405180602001604052806000815250600460003373ffffffffffffffffffffffffffffffffffffffff1673ffffffffffffffffffffffffffffffffffffffff16815260200190815260200160002060008b73ffffffffffffffffffffffffffffffffffffffff1673ffffffffffffffffffffffffffffffffffffffff1681526020019081526020016000206002019080519060200190612cee92919061432f565b505b8415612dc157600160003373ffffffffffffffffffffffffffffffffffffffff1673ffffffffffffffffffffffffffffffffffffffff16815260200190815260200160002060030154600460003373ffffffffffffffffffffffffffffffffffffffff1673ffffffffffffffffffffffffffffffffffffffff16815260200190815260200160002060008b73ffffffffffffffffffffffffffffffffffffffff1673ffffffffffffffffffffffffffffffffffffffff16815260200190815260200160002060030181905550612e47565b6000600460003373ffffffffffffffffffffffffffffffffffffffff1673ffffffffffffffffffffffffffffffffffffffff16815260200190815260200160002060008b73ffffffffffffffffffffffffffffffffffffffff1673ffffffffffffffffffffffffffffffffffffffff168152602001908152602001600020600301819055505b8315612f3357600160003373ffffffffffffffffffffffffffffffffffffffff1673ffffffffffffffffffffffffffffffffffffffff168152602001908152602001600020600401600460003373ffffffffffffffffffffffffffffffffffffffff1673ffffffffffffffffffffffffffffffffffffffff16815260200190815260200160002060008b73ffffffffffffffffffffffffffffffffffffffff1673ffffffffffffffffffffffffffffffffffffffff1681526020019081526020016000206004019080546001816001161561010002031660029004612f2d9291906143af565b50612fd7565b60405180602001604052806000815250600460003373ffffffffffffffffffffffffffffffffffffffff1673ffffffffffffffffffffffffffffffffffffffff16815260200190815260200160002060008b73ffffffffffffffffffffffffffffffffffffffff1673ffffffffffffffffffffffffffffffffffffffff1681526020019081526020016000206004019080519060200190612fd592919061432f565b505b82156130c357600160003373ffffffffffffffffffffffffffffffffffffffff1673ffffffffffffffffffffffffffffffffffffffff168152602001908152602001600020600501600460003373ffffffffffffffffffffffffffffffffffffffff1673ffffffffffffffffffffffffffffffffffffffff16815260200190815260200160002060008b73ffffffffffffffffffffffffffffffffffffffff1673ffffffffffffffffffffffffffffffffffffffff16815260200190815260200160002060050190805460018160011615610100020316600290046130bd9291906143af565b50613167565b60405180602001604052806000815250600460003373ffffffffffffffffffffffffffffffffffffffff1673ffffffffffffffffffffffffffffffffffffffff16815260200190815260200160002060008b73ffffffffffffffffffffffffffffffffffffffff1673ffffffffffffffffffffffffffffffffffffffff168152602001908152602001600020600501908051906020019061316592919061432f565b505b811561323857600160003373ffffffffffffffffffffffffffffffffffffffff1673ffffffffffffffffffffffffffffffffffffffff16815260200190815260200160002060060154600460003373ffffffffffffffffffffffffffffffffffffffff1673ffffffffffffffffffffffffffffffffffffffff16815260200190815260200160002060008b73ffffffffffffffffffffffffffffffffffffffff1673ffffffffffffffffffffffffffffffffffffffff168152602001908152602001600020600601819055506132be565b6000600460003373ffffffffffffffffffffffffffffffffffffffff1673ffffffffffffffffffffffffffffffffffffffff16815260200190815260200160002060008b73ffffffffffffffffffffffffffffffffffffffff1673ffffffffffffffffffffffffffffffffffffffff168152602001908152602001600020600601819055505b801561338f57600160003373ffffffffffffffffffffffffffffffffffffffff1673ffffffffffffffffffffffffffffffffffffffff16815260200190815260200160002060070154600460003373ffffffffffffffffffffffffffffffffffffffff1673ffffffffffffffffffffffffffffffffffffffff16815260200190815260200160002060008b73ffffffffffffffffffffffffffffffffffffffff1673ffffffffffffffffffffffffffffffffffffffff16815260200190815260200160002060070181905550613415565b6000600460003373ffffffffffffffffffffffffffffffffffffffff1673ffffffffffffffffffffffffffffffffffffffff16815260200190815260200160002060008b73ffffffffffffffffffffffffffffffffffffffff1673ffffffffffffffffffffffffffffffffffffffff168152602001908152602001600020600701819055505b505050505050505050565b60608060606000606080600460008873ffffffffffffffffffffffffffffffffffffffff1673ffffffffffffffffffffffffffffffffffffffff16815260200190815260200160002060003373ffffffffffffffffffffffffffffffffffffffff1673ffffffffffffffffffffffffffffffffffffffff168152602001908152602001600020600001600460008973ffffffffffffffffffffffffffffffffffffffff1673ffffffffffffffffffffffffffffffffffffffff16815260200190815260200160002060003373ffffffffffffffffffffffffffffffffffffffff1673ffffffffffffffffffffffffffffffffffffffff168152602001908152602001600020600101600460008a73ffffffffffffffffffffffffffffffffffffffff1673ffffffffffffffffffffffffffffffffffffffff16815260200190815260200160002060003373ffffffffffffffffffffffffffffffffffffffff1673ffffffffffffffffffffffffffffffffffffffff168152602001908152602001600020600201600460008b73ffffffffffffffffffffffffffffffffffffffff1673ffffffffffffffffffffffffffffffffffffffff16815260200190815260200160002060003373ffffffffffffffffffffffffffffffffffffffff1673ffffffffffffffffffffffffffffffffffffffff16815260200190815260200160002060030154600460008c73ffffffffffffffffffffffffffffffffffffffff1673ffffffffffffffffffffffffffffffffffffffff16815260200190815260200160002060003373ffffffffffffffffffffffffffffffffffffffff1673ffffffffffffffffffffffffffffffffffffffff168152602001908152602001600020600401600460008d73ffffffffffffffffffffffffffffffffffffffff1673ffffffffffffffffffffffffffffffffffffffff16815260200190815260200160002060003373ffffffffffffffffffffffffffffffffffffffff1673ffffffffffffffffffffffffffffffffffffffff168152602001908152602001600020600501858054600181600116156101000203166002900480601f0160208091040260200160405190810160405280929190818152602001828054600181600116156101000203166002900480156137ba5780601f1061378f576101008083540402835291602001916137ba565b820191906000526020600020905b81548152906001019060200180831161379d57829003601f168201915b50505050509550848054600181600116156101000203166002900480601f0160208091040260200160405190810160405280929190818152602001828054600181600116156101000203166002900480156138565780601f1061382b57610100808354040283529160200191613856565b820191906000526020600020905b81548152906001019060200180831161383957829003601f168201915b50505050509450838054600181600116156101000203166002900480601f0160208091040260200160405190810160405280929190818152602001828054600181600116156101000203166002900480156138f25780601f106138c7576101008083540402835291602001916138f2565b820191906000526020600020905b8154815290600101906020018083116138d557829003601f168201915b50505050509350818054600181600116156101000203166002900480601f01602080910402602001604051908101604052809291908181526020018280546001816001161561010002031660029004801561398e5780601f106139635761010080835404028352916020019161398e565b820191906000526020600020905b81548152906001019060200180831161397157829003601f168201915b50505050509150808054600181600116156101000203166002900480601f016020809104026020016040519081016040528092919081815260200182805460018160011615610100020316600290048015613a2a5780601f106139ff57610100808354040283529160200191613a2a565b820191906000526020600020905b815481529060010190602001808311613a0d57829003601f168201915b5050505050905095509550955095509550955091939550919395565b600260008b73ffffffffffffffffffffffffffffffffffffffff1673ffffffffffffffffffffffffffffffffffffffff1681526020019081526020016000206040518060a001604052808b81526020013373ffffffffffffffffffffffffffffffffffffffff1681526020016040518061010001604052808c81526020018b81526020018a815260200189815260200188815260200187815260200186815260200185815250815260200160008152602001600360003373ffffffffffffffffffffffffffffffffffffffff1673ffffffffffffffffffffffffffffffffffffffff168152602001908152602001600020805490508152509080600181540180825580915050906001820390600052602060002090600c0201600090919290919091506000820151816000015560208201518160010160006101000a81548173ffffffffffffffffffffffffffffffffffffffff021916908373ffffffffffffffffffffffffffffffffffffffff1602179055506040820151816002016000820151816000019080519060200190613bdf929190614436565b506020820151816001019080519060200190613bfc929190614436565b506040820151816002019080519060200190613c19929190614436565b50606082015181600301556080820151816004019080519060200190613c40929190614436565b5060a0820151816005019080519060200190613c5d929190614436565b5060c0820151816006015560e082015181600701555050606082015181600a0155608082015181600b0155505050600360003373ffffffffffffffffffffffffffffffffffffffff1673ffffffffffffffffffffffffffffffffffffffff16815260200190815260200160002060405180604001604052808c73ffffffffffffffffffffffffffffffffffffffff16815260200160008152509080600181540180825580915050906001820390600052602060002090600202016000909192909190915060008201518160000160006101000a81548173ffffffffffffffffffffffffffffffffffffffff021916908373ffffffffffffffffffffffffffffffffffffffff1602179055506020820151816001015550505050505050505050505050565b60608060606000606080600260003373ffffffffffffffffffffffffffffffffffffffff1673ffffffffffffffffffffffffffffffffffffffff1681526020019081526020016000208781548110613dd557fe5b90600052602060002090600c0201600201600001600260003373ffffffffffffffffffffffffffffffffffffffff1673ffffffffffffffffffffffffffffffffffffffff1681526020019081526020016000208881548110613e3357fe5b90600052602060002090600c0201600201600101600260003373ffffffffffffffffffffffffffffffffffffffff1673ffffffffffffffffffffffffffffffffffffffff1681526020019081526020016000208981548110613e9157fe5b90600052602060002090600c0201600201600201600260003373ffffffffffffffffffffffffffffffffffffffff1673ffffffffffffffffffffffffffffffffffffffff1681526020019081526020016000208a81548110613eef57fe5b90600052602060002090600c020160020160030154600260003373ffffffffffffffffffffffffffffffffffffffff1673ffffffffffffffffffffffffffffffffffffffff1681526020019081526020016000208b81548110613f4e57fe5b90600052602060002090600c0201600201600401600260003373ffffffffffffffffffffffffffffffffffffffff1673ffffffffffffffffffffffffffffffffffffffff1681526020019081526020016000208c81548110613fac57fe5b90600052602060002090600c0201600201600501858054600181600116156101000203166002900480601f0160208091040260200160405190810160405280929190818152602001828054600181600116156101000203166002900480156140555780601f1061402a57610100808354040283529160200191614055565b820191906000526020600020905b81548152906001019060200180831161403857829003601f168201915b50505050509550848054600181600116156101000203166002900480601f0160208091040260200160405190810160405280929190818152602001828054600181600116156101000203166002900480156140f15780601f106140c6576101008083540402835291602001916140f1565b820191906000526020600020905b8154815290600101906020018083116140d457829003601f168201915b50505050509450838054600181600116156101000203166002900480601f01602080910402602001604051908101604052809291908181526020018280546001816001161561010002031660029004801561418d5780601f106141625761010080835404028352916020019161418d565b820191906000526020600020905b81548152906001019060200180831161417057829003601f168201915b50505050509350818054600181600116156101000203166002900480601f0160208091040260200160405190810160405280929190818152602001828054600181600116156101000203166002900480156142295780601f106141fe57610100808354040283529160200191614229565b820191906000526020600020905b81548152906001019060200180831161420c57829003601f168201915b50505050509150808054600181600116156101000203166002900480601f0160208091040260200160405190810160405280929190818152602001828054600181600116156101000203166002900480156142c55780601f1061429a576101008083540402835291602001916142c5565b820191906000526020600020905b8154815290600101906020018083116142a857829003601f168201915b5050505050905095509550955095509550955091939550919395565b6040518060a0016040528060008019168152602001600073ffffffffffffffffffffffffffffffffffffffff16815260200161431b6144b6565b815260200160008152602001600081525090565b828054600181600116156101000203166002900490600052602060002090601f016020900481019282601f1061437057805160ff191683800117855561439e565b8280016001018555821561439e579182015b8281111561439d578251825591602001919060010190614382565b5b5090506143ab91906144fb565b5090565b828054600181600116156101000203166002900490600052602060002090601f016020900481019282601f106143e85780548555614425565b8280016001018555821561442557600052602060002091601f016020900482015b82811115614424578254825591600101919060010190614409565b5b50905061443291906144fb565b5090565b828054600181600116156101000203166002900490600052602060002090601f016020900481019282601f1061447757805160ff19168380011785556144a5565b828001600101855582156144a5579182015b828111156144a4578251825591602001919060010190614489565b5b5090506144b291906144fb565b5090565b60405180610100016040528060608152602001606081526020016060815260200160008152602001606081526020016060815260200160008152602001600081525090565b61451d91905b80821115614519576000816000905550600101614501565b5090565b9056fea265627a7a723158203aea71f438612f3c61c41e0a08f9e541ba5e2c8089e9965c38c51d711444d84964736f6c63430005110032",
  "linkReferences": {},
  "deployedLinkReferences": {}
}